{
  "_format": "hh-sol-artifact-1",
  "contractName": "EKAPB_COMPETENCE",
  "sourceName": "contracts/EKAPB_COMPETENCE.sol",
  "abi": [
    {
      "inputs": [],
      "stateMutability": "nonpayable",
      "type": "constructor"
    },
    {
      "inputs": [
        {
          "internalType": "address",
          "name": "_address",
          "type": "address"
        },
        {
          "internalType": "uint256",
          "name": "_competenceID",
          "type": "uint256"
        }
      ],
      "name": "getCompetence",
      "outputs": [
        {
          "internalType": "bool",
          "name": "",
          "type": "bool"
        }
      ],
      "stateMutability": "view",
      "type": "function"
    },
    {
      "inputs": [
        {
          "internalType": "address",
          "name": "_address",
          "type": "address"
        },
        {
          "internalType": "uint256",
          "name": "_competenceID",
          "type": "uint256"
        }
      ],
      "name": "setCompetence",
      "outputs": [],
      "stateMutability": "nonpayable",
      "type": "function"
    }
  ],
  "bytecode": "0x608060405234801561001057600080fd5b50336000806101000a81548173ffffffffffffffffffffffffffffffffffffffff021916908373ffffffffffffffffffffffffffffffffffffffff1602179055506103a2806100606000396000f3fe608060405234801561001057600080fd5b50600436106100365760003560e01c8063381fd3011461003b578063fdb81dc21461006b575b600080fd5b61005560048036038101906100509190610213565b610087565b6040516100629190610281565b60405180910390f35b61008560048036038101906100809190610213565b6100ef565b005b6000600160008473ffffffffffffffffffffffffffffffffffffffff1673ffffffffffffffffffffffffffffffffffffffff168152602001908152602001600020600083815260200190815260200160002060009054906101000a900460ff16905092915050565b60008054906101000a900473ffffffffffffffffffffffffffffffffffffffff1673ffffffffffffffffffffffffffffffffffffffff163373ffffffffffffffffffffffffffffffffffffffff161461017d576040517f08c379a00000000000000000000000000000000000000000000000000000000081526004016101749061029c565b60405180910390fd5b60018060008473ffffffffffffffffffffffffffffffffffffffff1673ffffffffffffffffffffffffffffffffffffffff168152602001908152602001600020600083815260200190815260200160002060006101000a81548160ff0219169083151502179055505050565b6000813590506101f88161033e565b92915050565b60008135905061020d81610355565b92915050565b6000806040838503121561022657600080fd5b6000610234858286016101e9565b9250506020610245858286016101fe565b9150509250929050565b610258816102df565b82525050565b600061026b601c836102bc565b915061027682610315565b602082019050919050565b6000602082019050610296600083018461024f565b92915050565b600060208201905081810360008301526102b58161025e565b9050919050565b600082825260208201905092915050565b60006102d8826102eb565b9050919050565b60008115159050919050565b600073ffffffffffffffffffffffffffffffffffffffff82169050919050565b6000819050919050565b7f4275207965746b69796520736168697020646567696c73696e697a2e00000000600082015250565b610347816102cd565b811461035257600080fd5b50565b61035e8161030b565b811461036957600080fd5b5056fea2646970667358221220f863acc74a28f31b7783cf3276a065cfc2f2a49d654024c555e29c2f35802d3c64736f6c63430008040033",
  "linkReferences": {},
  "deployedLinkReferences": {}
}