{
  "_format": "hh-sol-artifact-1",
  "contractName": "EKAPB_SUB",
  "sourceName": "contracts/EKAPB_SUB.sol",
  "abi": [
    {
      "inputs": [
        {
          "internalType": "string",
          "name": "_tenderDetail",
          "type": "string"
        },
        {
          "internalType": "string",
          "name": "_tenderPublicKey",
          "type": "string"
        },
        {
          "internalType": "uint256[]",
          "name": "_competenceIDs",
          "type": "uint256[]"
        },
        {
          "internalType": "address",
          "name": "_competenceAddress",
          "type": "address"
        }
      ],
      "stateMutability": "nonpayable",
      "type": "constructor"
    },
    {
      "inputs": [
        {
          "internalType": "uint256",
          "name": "_index",
          "type": "uint256"
        }
      ],
      "name": "getBidder",
      "outputs": [
        {
          "internalType": "address",
          "name": "",
          "type": "address"
        }
      ],
      "stateMutability": "view",
      "type": "function"
    },
    {
      "inputs": [
        {
          "internalType": "address",
          "name": "_address",
          "type": "address"
        }
      ],
      "name": "getBidderControl",
      "outputs": [
        {
          "internalType": "bool",
          "name": "",
          "type": "bool"
        }
      ],
      "stateMutability": "view",
      "type": "function"
    },
    {
      "inputs": [],
      "name": "getBidderCount",
      "outputs": [
        {
          "internalType": "uint256",
          "name": "",
          "type": "uint256"
        }
      ],
      "stateMutability": "view",
      "type": "function"
    },
    {
      "inputs": [
        {
          "internalType": "address",
          "name": "_address",
          "type": "address"
        }
      ],
      "name": "getBidderInfo",
      "outputs": [
        {
          "components": [
            {
              "internalType": "string",
              "name": "bidIPFSLink",
              "type": "string"
            },
            {
              "internalType": "bytes32",
              "name": "offerSha256",
              "type": "bytes32"
            },
            {
              "internalType": "bytes32",
              "name": "bidderPrivateKey",
              "type": "bytes32"
            },
            {
              "internalType": "uint256",
              "name": "offer",
              "type": "uint256"
            }
          ],
          "internalType": "struct EKAPB_SUB.BidderInfo",
          "name": "",
          "type": "tuple"
        }
      ],
      "stateMutability": "view",
      "type": "function"
    },
    {
      "inputs": [
        {
          "internalType": "uint256",
          "name": "_competenceID",
          "type": "uint256"
        }
      ],
      "name": "getCompetenceControl",
      "outputs": [
        {
          "internalType": "bool",
          "name": "",
          "type": "bool"
        }
      ],
      "stateMutability": "view",
      "type": "function"
    },
    {
      "inputs": [],
      "name": "getCompetenceCount",
      "outputs": [
        {
          "internalType": "uint256",
          "name": "",
          "type": "uint256"
        }
      ],
      "stateMutability": "view",
      "type": "function"
    },
    {
      "inputs": [
        {
          "internalType": "uint256",
          "name": "_index",
          "type": "uint256"
        }
      ],
      "name": "getCompetenceID",
      "outputs": [
        {
          "internalType": "uint256",
          "name": "",
          "type": "uint256"
        }
      ],
      "stateMutability": "view",
      "type": "function"
    },
    {
      "inputs": [],
      "name": "getTenderDetail",
      "outputs": [
        {
          "internalType": "string",
          "name": "",
          "type": "string"
        }
      ],
      "stateMutability": "view",
      "type": "function"
    },
    {
      "inputs": [],
      "name": "getTenderPublicKey",
      "outputs": [
        {
          "internalType": "string",
          "name": "",
          "type": "string"
        }
      ],
      "stateMutability": "view",
      "type": "function"
    },
    {
      "inputs": [],
      "name": "getTenderStatus",
      "outputs": [
        {
          "internalType": "bool",
          "name": "",
          "type": "bool"
        }
      ],
      "stateMutability": "view",
      "type": "function"
    },
    {
      "inputs": [
        {
          "internalType": "bytes32",
          "name": "_bidderPrivateKey",
          "type": "bytes32"
        },
        {
          "internalType": "uint256",
          "name": "_offer",
          "type": "uint256"
        }
      ],
      "name": "openOffer",
      "outputs": [],
      "stateMutability": "nonpayable",
      "type": "function"
    },
    {
      "inputs": [
        {
          "internalType": "string",
          "name": "_bidIPFSLink",
          "type": "string"
        },
        {
          "internalType": "bytes32",
          "name": "_offerSha256",
          "type": "bytes32"
        }
      ],
      "name": "setOffer",
      "outputs": [],
      "stateMutability": "nonpayable",
      "type": "function"
    }
  ],
  "bytecode": "0x60806040523480156200001157600080fd5b5060405162001bb138038062001bb18339818101604052810190620000379190620003a0565b83600290805190602001906200004f929190620001ae565b50826003908051906020019062000068929190620001ae565b5060005b825181101562000122576005838281518110620000b2577f4e487b7100000000000000000000000000000000000000000000000000000000600052603260045260246000fd5b6020026020010151908060018154018082558091505060019003906000526020600020016000909190919091505560016009600083815260200190815260200160002060006101000a81548160ff02191690831515021790555080806200011990620005c5565b9150506200006c565b50806000806101000a81548173ffffffffffffffffffffffffffffffffffffffff021916908373ffffffffffffffffffffffffffffffffffffffff16021790555033600160006101000a81548173ffffffffffffffffffffffffffffffffffffffff021916908373ffffffffffffffffffffffffffffffffffffffff16021790555050505050620006e5565b828054620001bc9062000559565b90600052602060002090601f016020900481019282620001e057600085556200022c565b82601f10620001fb57805160ff19168380011785556200022c565b828001600101855582156200022c579182015b828111156200022b5782518255916020019190600101906200020e565b5b5090506200023b91906200023f565b5090565b5b808211156200025a57600081600090555060010162000240565b5090565b6000620002756200026f8462000480565b62000457565b905080838252602082019050828560208602820111156200029557600080fd5b60005b85811015620002c95781620002ae888262000389565b84526020840193506020830192505060018101905062000298565b5050509392505050565b6000620002ea620002e484620004af565b62000457565b9050828152602081018484840111156200030357600080fd5b6200031084828562000523565b509392505050565b6000815190506200032981620006b1565b92915050565b600082601f8301126200034157600080fd5b8151620003538482602086016200025e565b91505092915050565b600082601f8301126200036e57600080fd5b815162000380848260208601620002d3565b91505092915050565b6000815190506200039a81620006cb565b92915050565b60008060008060808587031215620003b757600080fd5b600085015167ffffffffffffffff811115620003d257600080fd5b620003e0878288016200035c565b945050602085015167ffffffffffffffff811115620003fe57600080fd5b6200040c878288016200035c565b935050604085015167ffffffffffffffff8111156200042a57600080fd5b62000438878288016200032f565b92505060606200044b8782880162000318565b91505092959194509250565b60006200046362000476565b90506200047182826200058f565b919050565b6000604051905090565b600067ffffffffffffffff8211156200049e576200049d62000671565b5b602082029050602081019050919050565b600067ffffffffffffffff821115620004cd57620004cc62000671565b5b620004d882620006a0565b9050602081019050919050565b6000620004f282620004f9565b9050919050565b600073ffffffffffffffffffffffffffffffffffffffff82169050919050565b6000819050919050565b60005b838110156200054357808201518184015260208101905062000526565b8381111562000553576000848401525b50505050565b600060028204905060018216806200057257607f821691505b6020821081141562000589576200058862000642565b5b50919050565b6200059a82620006a0565b810181811067ffffffffffffffff82111715620005bc57620005bb62000671565b5b80604052505050565b6000620005d28262000519565b91507fffffffffffffffffffffffffffffffffffffffffffffffffffffffffffffffff82141562000608576200060762000613565b5b600182019050919050565b7f4e487b7100000000000000000000000000000000000000000000000000000000600052601160045260246000fd5b7f4e487b7100000000000000000000000000000000000000000000000000000000600052602260045260246000fd5b7f4e487b7100000000000000000000000000000000000000000000000000000000600052604160045260246000fd5b6000601f19601f8301169050919050565b620006bc81620004e5565b8114620006c857600080fd5b50565b620006d68162000519565b8114620006e257600080fd5b50565b6114bc80620006f56000396000f3fe608060405234801561001057600080fd5b50600436106100b45760003560e01c806395c0d84b1161007157806395c0d84b1461018f57806397af5874146101bf5780639de317ce146101ef578063c049144c1461020b578063c87da02d1461023b578063d2fdb01d14610259576100b4565b80631af27a58146100b95780632c66e6b2146100d75780637ac717b514610107578063865109f214610125578063896f4399146101555780639045106014610171575b600080fd5b6100c1610277565b6040516100ce9190610fb1565b60405180910390f35b6100f160048036038101906100ec9190610d5a565b610309565b6040516100fe9190611095565b60405180910390f35b61010f610357565b60405161011c9190611095565b60405180910390f35b61013f600480360381019061013a9190610d5a565b610364565b60405161014c9190610f52565b60405180910390f35b61016f600480360381019061016a9190610cca565b6103d2565b005b6101796104b8565b6040516101869190610fb1565b60405180910390f35b6101a960048036038101906101a49190610c78565b61054a565b6040516101b69190611073565b60405180910390f35b6101d960048036038101906101d49190610d5a565b610653565b6040516101e69190610f96565b60405180910390f35b61020960048036038101906102049190610d06565b61067d565b005b61022560048036038101906102209190610c78565b610a71565b6040516102329190610f96565b60405180910390f35b610243610ac7565b6040516102509190611095565b60405180910390f35b610261610ad4565b60405161026e9190610f96565b60405180910390f35b606060028054610286906111c7565b80601f01602080910402602001604051908101604052809291908181526020018280546102b2906111c7565b80156102ff5780601f106102d4576101008083540402835291602001916102ff565b820191906000526020600020905b8154815290600101906020018083116102e257829003601f168201915b5050505050905090565b600060058281548110610345577f4e487b7100000000000000000000000000000000000000000000000000000000600052603260045260246000fd5b90600052602060002001549050919050565b6000600580549050905090565b6000600682815481106103a0577f4e487b7100000000000000000000000000000000000000000000000000000000600052603260045260246000fd5b9060005260206000200160009054906101000a900473ffffffffffffffffffffffffffffffffffffffff169050919050565b600760003373ffffffffffffffffffffffffffffffffffffffff1673ffffffffffffffffffffffffffffffffffffffff16815260200190815260200160002060009054906101000a900460ff1661045e576040517f08c379a000000000000000000000000000000000000000000000000000000000815260040161045590610fd3565b60405180910390fd5b6000600860003373ffffffffffffffffffffffffffffffffffffffff1673ffffffffffffffffffffffffffffffffffffffff1681526020019081526020016000209050828160020181905550818160030181905550505050565b6060600380546104c7906111c7565b80601f01602080910402602001604051908101604052809291908181526020018280546104f3906111c7565b80156105405780601f1061051557610100808354040283529160200191610540565b820191906000526020600020905b81548152906001019060200180831161052357829003601f168201915b5050505050905090565b610552610aeb565b600860008373ffffffffffffffffffffffffffffffffffffffff1673ffffffffffffffffffffffffffffffffffffffff1681526020019081526020016000206040518060800160405290816000820180546105ac906111c7565b80601f01602080910402602001604051908101604052809291908181526020018280546105d8906111c7565b80156106255780601f106105fa57610100808354040283529160200191610625565b820191906000526020600020905b81548152906001019060200180831161060857829003601f168201915b5050505050815260200160018201548152602001600282015481526020016003820154815250509050919050565b60006009600083815260200190815260200160002060009054906101000a900460ff169050919050565b600080600090505b6005805490508110156107a5576001151560008054906101000a900473ffffffffffffffffffffffffffffffffffffffff1673ffffffffffffffffffffffffffffffffffffffff1663381fd301336005858154811061070d577f4e487b7100000000000000000000000000000000000000000000000000000000600052603260045260246000fd5b90600052602060002001546040518363ffffffff1660e01b8152600401610735929190610f6d565b60206040518083038186803b15801561074d57600080fd5b505afa158015610761573d6000803e3d6000fd5b505050506040513d601f19601f820116820180604052508101906107859190610ca1565b1515141561079257600191505b808061079d9061122a565b915050610685565b5060011515811515146107ed576040517f08c379a00000000000000000000000000000000000000000000000000000000081526004016107e490610ff3565b60405180910390fd5b600460009054906101000a900460ff1661083c576040517f08c379a000000000000000000000000000000000000000000000000000000000815260040161083390611013565b60405180910390fd5b600460019054906101000a900460ff1661088b576040517f08c379a000000000000000000000000000000000000000000000000000000000815260040161088290611033565b60405180910390fd5b600760003373ffffffffffffffffffffffffffffffffffffffff1673ffffffffffffffffffffffffffffffffffffffff16815260200190815260200160002060009054906101000a900460ff16610917576040517f08c379a000000000000000000000000000000000000000000000000000000000815260040161090e90611053565b60405180910390fd5b61091f610aeb565b8381600001819052508281602001818152505080600860003373ffffffffffffffffffffffffffffffffffffffff1673ffffffffffffffffffffffffffffffffffffffff168152602001908152602001600020600082015181600001908051906020019061098e929190610b19565b506020820151816001015560408201518160020155606082015181600301559050506006339080600181540180825580915050600190039060005260206000200160009091909190916101000a81548173ffffffffffffffffffffffffffffffffffffffff021916908373ffffffffffffffffffffffffffffffffffffffff1602179055506001600760003373ffffffffffffffffffffffffffffffffffffffff1673ffffffffffffffffffffffffffffffffffffffff16815260200190815260200160002060006101000a81548160ff02191690831515021790555050505050565b6000600760008373ffffffffffffffffffffffffffffffffffffffff1673ffffffffffffffffffffffffffffffffffffffff16815260200190815260200160002060009054906101000a900460ff169050919050565b6000600680549050905090565b6000600460029054906101000a900460ff16905090565b6040518060800160405280606081526020016000801916815260200160008019168152602001600081525090565b828054610b25906111c7565b90600052602060002090601f016020900481019282610b475760008555610b8e565b82601f10610b6057805160ff1916838001178555610b8e565b82800160010185558215610b8e579182015b82811115610b8d578251825591602001919060010190610b72565b5b509050610b9b9190610b9f565b5090565b5b80821115610bb8576000816000905550600101610ba0565b5090565b6000610bcf610bca846110d5565b6110b0565b905082815260208101848484011115610be757600080fd5b610bf2848285611185565b509392505050565b600081359050610c098161142a565b92915050565b600081519050610c1e81611441565b92915050565b600081359050610c3381611458565b92915050565b600082601f830112610c4a57600080fd5b8135610c5a848260208601610bbc565b91505092915050565b600081359050610c728161146f565b92915050565b600060208284031215610c8a57600080fd5b6000610c9884828501610bfa565b91505092915050565b600060208284031215610cb357600080fd5b6000610cc184828501610c0f565b91505092915050565b60008060408385031215610cdd57600080fd5b6000610ceb85828601610c24565b9250506020610cfc85828601610c63565b9150509250929050565b60008060408385031215610d1957600080fd5b600083013567ffffffffffffffff811115610d3357600080fd5b610d3f85828601610c39565b9250506020610d5085828601610c24565b9150509250929050565b600060208284031215610d6c57600080fd5b6000610d7a84828501610c63565b91505092915050565b610d8c81611133565b82525050565b610d9b81611145565b82525050565b610daa81611151565b82525050565b6000610dbb82611106565b610dc58185611111565b9350610dd5818560208601611194565b610dde81611300565b840191505092915050565b6000610df482611106565b610dfe8185611122565b9350610e0e818560208601611194565b610e1781611300565b840191505092915050565b6000610e2f601d83611122565b9150610e3a82611311565b602082019050919050565b6000610e52601c83611122565b9150610e5d8261133a565b602082019050919050565b6000610e75602183611122565b9150610e8082611363565b604082019050919050565b6000610e98601f83611122565b9150610ea3826113b2565b602082019050919050565b6000610ebb602183611122565b9150610ec6826113db565b604082019050919050565b60006080830160008301518482036000860152610eee8282610db0565b9150506020830151610f036020860182610da1565b506040830151610f166040860182610da1565b506060830151610f296060860182610f34565b508091505092915050565b610f3d8161117b565b82525050565b610f4c8161117b565b82525050565b6000602082019050610f676000830184610d83565b92915050565b6000604082019050610f826000830185610d83565b610f8f6020830184610f43565b9392505050565b6000602082019050610fab6000830184610d92565b92915050565b60006020820190508181036000830152610fcb8184610de9565b905092915050565b60006020820190508181036000830152610fec81610e22565b9050919050565b6000602082019050818103600083015261100c81610e45565b9050919050565b6000602082019050818103600083015261102c81610e68565b9050919050565b6000602082019050818103600083015261104c81610e8b565b9050919050565b6000602082019050818103600083015261106c81610eae565b9050919050565b6000602082019050818103600083015261108d8184610ed1565b905092915050565b60006020820190506110aa6000830184610f43565b92915050565b60006110ba6110cb565b90506110c682826111f9565b919050565b6000604051905090565b600067ffffffffffffffff8211156110f0576110ef6112d1565b5b6110f982611300565b9050602081019050919050565b600081519050919050565b600082825260208201905092915050565b600082825260208201905092915050565b600061113e8261115b565b9050919050565b60008115159050919050565b6000819050919050565b600073ffffffffffffffffffffffffffffffffffffffff82169050919050565b6000819050919050565b82818337600083830152505050565b60005b838110156111b2578082015181840152602081019050611197565b838111156111c1576000848401525b50505050565b600060028204905060018216806111df57607f821691505b602082108114156111f3576111f26112a2565b5b50919050565b61120282611300565b810181811067ffffffffffffffff82111715611221576112206112d1565b5b80604052505050565b60006112358261117b565b91507fffffffffffffffffffffffffffffffffffffffffffffffffffffffffffffffff82141561126857611267611273565b5b600182019050919050565b7f4e487b7100000000000000000000000000000000000000000000000000000000600052601160045260246000fd5b7f4e487b7100000000000000000000000000000000000000000000000000000000600052602260045260246000fd5b7f4e487b7100000000000000000000000000000000000000000000000000000000600052604160045260246000fd5b6000601f19601f8301169050919050565b7f4275206968616c6579652074656b6c6966207961706d6164696e697a2e000000600082015250565b7f4275207965746b69796520736168697020646567696c73696e697a2e00000000600082015250565b7f4968616c6579652074656b6c6966207665726d65207375616e206b6170616c6960008201527f2e00000000000000000000000000000000000000000000000000000000000000602082015250565b7f4968616c6579652074656b6c6966207665726d65206b61706174696c64692e00600082015250565b7f4275206968616c657965207a6174656e2074656b6c69662076657264696e697a60008201527f2e00000000000000000000000000000000000000000000000000000000000000602082015250565b61143381611133565b811461143e57600080fd5b50565b61144a81611145565b811461145557600080fd5b50565b61146181611151565b811461146c57600080fd5b50565b6114788161117b565b811461148357600080fd5b5056fea26469706673582212201901258600365e1d3fa268330f25bdcf1ca6a07653c308d3e3e2b5f2f945447264736f6c63430008040033",
  "linkReferences": {},
  "deployedLinkReferences": {}
}