{
  "_format": "hh-sol-artifact-1",
  "contractName": "EKAPB_SUB",
  "sourceName": "contracts/EKAPB_SUB.sol",
  "abi": [
    {
      "inputs": [
        {
          "internalType": "string",
          "name": "_tenderDetail",
          "type": "string"
        },
        {
          "internalType": "string",
          "name": "_tenderPublicKey",
          "type": "string"
        },
        {
          "internalType": "uint256[]",
          "name": "_competenceIDs",
          "type": "uint256[]"
        },
        {
          "internalType": "address",
          "name": "_competenceAddress",
          "type": "address"
        },
        {
          "internalType": "address",
          "name": "_creator",
          "type": "address"
        }
      ],
      "stateMutability": "nonpayable",
      "type": "constructor"
    },
    {
      "inputs": [
        {
          "internalType": "uint256",
          "name": "_index",
          "type": "uint256"
        }
      ],
      "name": "getBidder",
      "outputs": [
        {
          "internalType": "address",
          "name": "",
          "type": "address"
        }
      ],
      "stateMutability": "view",
      "type": "function"
    },
    {
      "inputs": [
        {
          "internalType": "address",
          "name": "_address",
          "type": "address"
        }
      ],
      "name": "getBidderControl",
      "outputs": [
        {
          "internalType": "bool",
          "name": "",
          "type": "bool"
        }
      ],
      "stateMutability": "view",
      "type": "function"
    },
    {
      "inputs": [],
      "name": "getBidderCount",
      "outputs": [
        {
          "internalType": "uint256",
          "name": "",
          "type": "uint256"
        }
      ],
      "stateMutability": "view",
      "type": "function"
    },
    {
      "inputs": [
        {
          "internalType": "address",
          "name": "_address",
          "type": "address"
        }
      ],
      "name": "getBidderInfo",
      "outputs": [
        {
          "components": [
            {
              "internalType": "string",
              "name": "bidIPFSLink",
              "type": "string"
            },
            {
              "internalType": "bytes32",
              "name": "offerSha256",
              "type": "bytes32"
            },
            {
              "internalType": "bytes32",
              "name": "bidderPrivateKey",
              "type": "bytes32"
            },
            {
              "internalType": "uint256",
              "name": "offer",
              "type": "uint256"
            }
          ],
          "internalType": "struct EKAPB_SUB.BidderInfo",
          "name": "",
          "type": "tuple"
        }
      ],
      "stateMutability": "view",
      "type": "function"
    },
    {
      "inputs": [
        {
          "internalType": "uint256",
          "name": "_competenceID",
          "type": "uint256"
        }
      ],
      "name": "getCompetenceControl",
      "outputs": [
        {
          "internalType": "bool",
          "name": "",
          "type": "bool"
        }
      ],
      "stateMutability": "view",
      "type": "function"
    },
    {
      "inputs": [],
      "name": "getCompetenceCount",
      "outputs": [
        {
          "internalType": "uint256",
          "name": "",
          "type": "uint256"
        }
      ],
      "stateMutability": "view",
      "type": "function"
    },
    {
      "inputs": [
        {
          "internalType": "uint256",
          "name": "_index",
          "type": "uint256"
        }
      ],
      "name": "getCompetenceID",
      "outputs": [
        {
          "internalType": "uint256",
          "name": "",
          "type": "uint256"
        }
      ],
      "stateMutability": "view",
      "type": "function"
    },
    {
      "inputs": [],
      "name": "getTenderDetail",
      "outputs": [
        {
          "internalType": "string",
          "name": "",
          "type": "string"
        }
      ],
      "stateMutability": "view",
      "type": "function"
    },
    {
      "inputs": [],
      "name": "getTenderPublicKey",
      "outputs": [
        {
          "internalType": "string",
          "name": "",
          "type": "string"
        }
      ],
      "stateMutability": "view",
      "type": "function"
    },
    {
      "inputs": [],
      "name": "getTenderStatus",
      "outputs": [
        {
          "internalType": "bool",
          "name": "",
          "type": "bool"
        }
      ],
      "stateMutability": "view",
      "type": "function"
    },
    {
      "inputs": [
        {
          "internalType": "bytes32",
          "name": "_bidderPrivateKey",
          "type": "bytes32"
        },
        {
          "internalType": "uint256",
          "name": "_offer",
          "type": "uint256"
        }
      ],
      "name": "openOffer",
      "outputs": [],
      "stateMutability": "nonpayable",
      "type": "function"
    },
    {
      "inputs": [],
      "name": "setBidStart",
      "outputs": [],
      "stateMutability": "nonpayable",
      "type": "function"
    },
    {
      "inputs": [],
      "name": "setBidStop",
      "outputs": [],
      "stateMutability": "nonpayable",
      "type": "function"
    },
    {
      "inputs": [
        {
          "internalType": "string",
          "name": "_bidIPFSLink",
          "type": "string"
        },
        {
          "internalType": "bytes32",
          "name": "_offerSha256",
          "type": "bytes32"
        }
      ],
      "name": "setOffer",
      "outputs": [],
      "stateMutability": "nonpayable",
      "type": "function"
    }
  ],
  "bytecode": "0x60806040523480156200001157600080fd5b5060405162001f9138038062001f918339818101604052810190620000379190620003a1565b84600290805190602001906200004f929190620001af565b50836003908051906020019062000068929190620001af565b5060005b835181101562000122576005848281518110620000b2577f4e487b7100000000000000000000000000000000000000000000000000000000600052603260045260246000fd5b6020026020010151908060018154018082558091505060019003906000526020600020016000909190919091505560016009600083815260200190815260200160002060006101000a81548160ff02191690831515021790555080806200011990620005dc565b9150506200006c565b50816000806101000a81548173ffffffffffffffffffffffffffffffffffffffff021916908373ffffffffffffffffffffffffffffffffffffffff16021790555080600160006101000a81548173ffffffffffffffffffffffffffffffffffffffff021916908373ffffffffffffffffffffffffffffffffffffffff1602179055505050505050620006fc565b828054620001bd9062000570565b90600052602060002090601f016020900481019282620001e157600085556200022d565b82601f10620001fc57805160ff19168380011785556200022d565b828001600101855582156200022d579182015b828111156200022c5782518255916020019190600101906200020f565b5b5090506200023c919062000240565b5090565b5b808211156200025b57600081600090555060010162000241565b5090565b600062000276620002708462000497565b6200046e565b905080838252602082019050828560208602820111156200029657600080fd5b60005b85811015620002ca5781620002af88826200038a565b84526020840193506020830192505060018101905062000299565b5050509392505050565b6000620002eb620002e584620004c6565b6200046e565b9050828152602081018484840111156200030457600080fd5b620003118482856200053a565b509392505050565b6000815190506200032a81620006c8565b92915050565b600082601f8301126200034257600080fd5b8151620003548482602086016200025f565b91505092915050565b600082601f8301126200036f57600080fd5b815162000381848260208601620002d4565b91505092915050565b6000815190506200039b81620006e2565b92915050565b600080600080600060a08688031215620003ba57600080fd5b600086015167ffffffffffffffff811115620003d557600080fd5b620003e3888289016200035d565b955050602086015167ffffffffffffffff8111156200040157600080fd5b6200040f888289016200035d565b945050604086015167ffffffffffffffff8111156200042d57600080fd5b6200043b8882890162000330565b93505060606200044e8882890162000319565b9250506080620004618882890162000319565b9150509295509295909350565b60006200047a6200048d565b9050620004888282620005a6565b919050565b6000604051905090565b600067ffffffffffffffff821115620004b557620004b462000688565b5b602082029050602081019050919050565b600067ffffffffffffffff821115620004e457620004e362000688565b5b620004ef82620006b7565b9050602081019050919050565b6000620005098262000510565b9050919050565b600073ffffffffffffffffffffffffffffffffffffffff82169050919050565b6000819050919050565b60005b838110156200055a5780820151818401526020810190506200053d565b838111156200056a576000848401525b50505050565b600060028204905060018216806200058957607f821691505b60208210811415620005a0576200059f62000659565b5b50919050565b620005b182620006b7565b810181811067ffffffffffffffff82111715620005d357620005d262000688565b5b80604052505050565b6000620005e98262000530565b91507fffffffffffffffffffffffffffffffffffffffffffffffffffffffffffffffff8214156200061f576200061e6200062a565b5b600182019050919050565b7f4e487b7100000000000000000000000000000000000000000000000000000000600052601160045260246000fd5b7f4e487b7100000000000000000000000000000000000000000000000000000000600052602260045260246000fd5b7f4e487b7100000000000000000000000000000000000000000000000000000000600052604160045260246000fd5b6000601f19601f8301169050919050565b620006d381620004fc565b8114620006df57600080fd5b50565b620006ed8162000530565b8114620006f957600080fd5b50565b611885806200070c6000396000f3fe608060405234801561001057600080fd5b50600436106100ea5760003560e01c806395c0d84b1161008c578063c049144c11610066578063c049144c1461024b578063c87da02d1461027b578063cd48ddfd14610299578063d2fdb01d146102a3576100ea565b806395c0d84b146101cf57806397af5874146101ff5780639de317ce1461022f576100ea565b80637ac717b5116100c85780637ac717b514610147578063865109f214610165578063896f43991461019557806390451060146101b1576100ea565b8063111eebeb146100ef5780631af27a58146100f95780632c66e6b214610117575b600080fd5b6100f76102c1565b005b61010161036e565b60405161010e91906112c2565b60405180910390f35b610131600480360381019061012c9190611025565b610400565b60405161013e91906113e6565b60405180910390f35b61014f61044e565b60405161015c91906113e6565b60405180910390f35b61017f600480360381019061017a9190611025565b61045b565b60405161018c9190611263565b60405180910390f35b6101af60048036038101906101aa9190610f95565b6104c9565b005b6101b96106d4565b6040516101c691906112c2565b60405180910390f35b6101e960048036038101906101e49190610f43565b610766565b6040516101f691906113c4565b60405180910390f35b61021960048036038101906102149190611025565b61086f565b60405161022691906112a7565b60405180910390f35b61024960048036038101906102449190610fd1565b610899565b005b61026560048036038101906102609190610f43565b610c8f565b60405161027291906112a7565b60405180910390f35b610283610ce5565b60405161029091906113e6565b60405180910390f35b6102a1610cf2565b005b6102ab610d9f565b6040516102b891906112a7565b60405180910390f35b600160009054906101000a900473ffffffffffffffffffffffffffffffffffffffff1673ffffffffffffffffffffffffffffffffffffffff163373ffffffffffffffffffffffffffffffffffffffff1614610351576040517f08c379a000000000000000000000000000000000000000000000000000000000815260040161034890611344565b60405180910390fd5b6001600460006101000a81548160ff021916908315150217905550565b60606002805461037d90611518565b80601f01602080910402602001604051908101604052809291908181526020018280546103a990611518565b80156103f65780601f106103cb576101008083540402835291602001916103f6565b820191906000526020600020905b8154815290600101906020018083116103d957829003601f168201915b5050505050905090565b60006005828154811061043c577f4e487b7100000000000000000000000000000000000000000000000000000000600052603260045260246000fd5b90600052602060002001549050919050565b6000600580549050905090565b600060068281548110610497577f4e487b7100000000000000000000000000000000000000000000000000000000600052603260045260246000fd5b9060005260206000200160009054906101000a900473ffffffffffffffffffffffffffffffffffffffff169050919050565b600460019054906101000a900460ff16610518576040517f08c379a000000000000000000000000000000000000000000000000000000000815260040161050f906112e4565b60405180910390fd5b6000600860003373ffffffffffffffffffffffffffffffffffffffff1673ffffffffffffffffffffffffffffffffffffffff168152602001908152602001600020600301541180156105af57506000801b600860003373ffffffffffffffffffffffffffffffffffffffff1673ffffffffffffffffffffffffffffffffffffffff1681526020019081526020016000206002015414155b6105ee576040517f08c379a00000000000000000000000000000000000000000000000000000000081526004016105e590611304565b60405180910390fd5b600760003373ffffffffffffffffffffffffffffffffffffffff1673ffffffffffffffffffffffffffffffffffffffff16815260200190815260200160002060009054906101000a900460ff1661067a576040517f08c379a000000000000000000000000000000000000000000000000000000000815260040161067190611324565b60405180910390fd5b6000600860003373ffffffffffffffffffffffffffffffffffffffff1673ffffffffffffffffffffffffffffffffffffffff1681526020019081526020016000209050828160020181905550818160030181905550505050565b6060600380546106e390611518565b80601f016020809104026020016040519081016040528092919081815260200182805461070f90611518565b801561075c5780601f106107315761010080835404028352916020019161075c565b820191906000526020600020905b81548152906001019060200180831161073f57829003601f168201915b5050505050905090565b61076e610db6565b600860008373ffffffffffffffffffffffffffffffffffffffff1673ffffffffffffffffffffffffffffffffffffffff1681526020019081526020016000206040518060800160405290816000820180546107c890611518565b80601f01602080910402602001604051908101604052809291908181526020018280546107f490611518565b80156108415780601f1061081657610100808354040283529160200191610841565b820191906000526020600020905b81548152906001019060200180831161082457829003601f168201915b5050505050815260200160018201548152602001600282015481526020016003820154815250509050919050565b60006009600083815260200190815260200160002060009054906101000a900460ff169050919050565b600080600090505b6005805490508110156109c1576001151560008054906101000a900473ffffffffffffffffffffffffffffffffffffffff1673ffffffffffffffffffffffffffffffffffffffff1663381fd3013360058581548110610929577f4e487b7100000000000000000000000000000000000000000000000000000000600052603260045260246000fd5b90600052602060002001546040518363ffffffff1660e01b815260040161095192919061127e565b60206040518083038186803b15801561096957600080fd5b505afa15801561097d573d6000803e3d6000fd5b505050506040513d601f19601f820116820180604052508101906109a19190610f6c565b151514156109ae57600191505b80806109b99061157b565b9150506108a1565b506001151581151514610a09576040517f08c379a0000000000000000000000000000000000000000000000000000000008152600401610a0090611344565b60405180910390fd5b600460009054906101000a900460ff16610a58576040517f08c379a0000000000000000000000000000000000000000000000000000000008152600401610a4f90611364565b60405180910390fd5b600460019054906101000a900460ff1615610aa8576040517f08c379a0000000000000000000000000000000000000000000000000000000008152600401610a9f90611384565b60405180910390fd5b600760003373ffffffffffffffffffffffffffffffffffffffff1673ffffffffffffffffffffffffffffffffffffffff16815260200190815260200160002060009054906101000a900460ff1615610b35576040517f08c379a0000000000000000000000000000000000000000000000000000000008152600401610b2c906113a4565b60405180910390fd5b610b3d610db6565b8381600001819052508281602001818152505080600860003373ffffffffffffffffffffffffffffffffffffffff1673ffffffffffffffffffffffffffffffffffffffff1681526020019081526020016000206000820151816000019080519060200190610bac929190610de4565b506020820151816001015560408201518160020155606082015181600301559050506006339080600181540180825580915050600190039060005260206000200160009091909190916101000a81548173ffffffffffffffffffffffffffffffffffffffff021916908373ffffffffffffffffffffffffffffffffffffffff1602179055506001600760003373ffffffffffffffffffffffffffffffffffffffff1673ffffffffffffffffffffffffffffffffffffffff16815260200190815260200160002060006101000a81548160ff02191690831515021790555050505050565b6000600760008373ffffffffffffffffffffffffffffffffffffffff1673ffffffffffffffffffffffffffffffffffffffff16815260200190815260200160002060009054906101000a900460ff169050919050565b6000600680549050905090565b600160009054906101000a900473ffffffffffffffffffffffffffffffffffffffff1673ffffffffffffffffffffffffffffffffffffffff163373ffffffffffffffffffffffffffffffffffffffff1614610d82576040517f08c379a0000000000000000000000000000000000000000000000000000000008152600401610d7990611344565b60405180910390fd5b6001600460016101000a81548160ff021916908315150217905550565b6000600460029054906101000a900460ff16905090565b6040518060800160405280606081526020016000801916815260200160008019168152602001600081525090565b828054610df090611518565b90600052602060002090601f016020900481019282610e125760008555610e59565b82601f10610e2b57805160ff1916838001178555610e59565b82800160010185558215610e59579182015b82811115610e58578251825591602001919060010190610e3d565b5b509050610e669190610e6a565b5090565b5b80821115610e83576000816000905550600101610e6b565b5090565b6000610e9a610e9584611426565b611401565b905082815260208101848484011115610eb257600080fd5b610ebd8482856114d6565b509392505050565b600081359050610ed4816117f3565b92915050565b600081519050610ee98161180a565b92915050565b600081359050610efe81611821565b92915050565b600082601f830112610f1557600080fd5b8135610f25848260208601610e87565b91505092915050565b600081359050610f3d81611838565b92915050565b600060208284031215610f5557600080fd5b6000610f6384828501610ec5565b91505092915050565b600060208284031215610f7e57600080fd5b6000610f8c84828501610eda565b91505092915050565b60008060408385031215610fa857600080fd5b6000610fb685828601610eef565b9250506020610fc785828601610f2e565b9150509250929050565b60008060408385031215610fe457600080fd5b600083013567ffffffffffffffff811115610ffe57600080fd5b61100a85828601610f04565b925050602061101b85828601610eef565b9150509250929050565b60006020828403121561103757600080fd5b600061104584828501610f2e565b91505092915050565b61105781611484565b82525050565b61106681611496565b82525050565b611075816114a2565b82525050565b600061108682611457565b6110908185611462565b93506110a08185602086016114e5565b6110a981611651565b840191505092915050565b60006110bf82611457565b6110c98185611473565b93506110d98185602086016114e5565b6110e281611651565b840191505092915050565b60006110fa603983611473565b915061110582611662565b604082019050919050565b600061111d602083611473565b9150611128826116b1565b602082019050919050565b6000611140601d83611473565b915061114b826116da565b602082019050919050565b6000611163601c83611473565b915061116e82611703565b602082019050919050565b6000611186602183611473565b91506111918261172c565b604082019050919050565b60006111a9601f83611473565b91506111b48261177b565b602082019050919050565b60006111cc602183611473565b91506111d7826117a4565b604082019050919050565b600060808301600083015184820360008601526111ff828261107b565b9150506020830151611214602086018261106c565b506040830151611227604086018261106c565b50606083015161123a6060860182611245565b508091505092915050565b61124e816114cc565b82525050565b61125d816114cc565b82525050565b6000602082019050611278600083018461104e565b92915050565b6000604082019050611293600083018561104e565b6112a06020830184611254565b9392505050565b60006020820190506112bc600083018461105d565b92915050565b600060208201905081810360008301526112dc81846110b4565b905092915050565b600060208201905081810360008301526112fd816110ed565b9050919050565b6000602082019050818103600083015261131d81611110565b9050919050565b6000602082019050818103600083015261133d81611133565b9050919050565b6000602082019050818103600083015261135d81611156565b9050919050565b6000602082019050818103600083015261137d81611179565b9050919050565b6000602082019050818103600083015261139d8161119c565b9050919050565b600060208201905081810360008301526113bd816111bf565b9050919050565b600060208201905081810360008301526113de81846111e2565b905092915050565b60006020820190506113fb6000830184611254565b92915050565b600061140b61141c565b9050611417828261154a565b919050565b6000604051905090565b600067ffffffffffffffff82111561144157611440611622565b5b61144a82611651565b9050602081019050919050565b600081519050919050565b600082825260208201905092915050565b600082825260208201905092915050565b600061148f826114ac565b9050919050565b60008115159050919050565b6000819050919050565b600073ffffffffffffffffffffffffffffffffffffffff82169050919050565b6000819050919050565b82818337600083830152505050565b60005b838110156115035780820151818401526020810190506114e8565b83811115611512576000848401525b50505050565b6000600282049050600182168061153057607f821691505b60208210811415611544576115436115f3565b5b50919050565b61155382611651565b810181811067ffffffffffffffff8211171561157257611571611622565b5b80604052505050565b6000611586826114cc565b91507fffffffffffffffffffffffffffffffffffffffffffffffffffffffffffffffff8214156115b9576115b86115c4565b5b600182019050919050565b7f4e487b7100000000000000000000000000000000000000000000000000000000600052601160045260246000fd5b7f4e487b7100000000000000000000000000000000000000000000000000000000600052602260045260246000fd5b7f4e487b7100000000000000000000000000000000000000000000000000000000600052604160045260246000fd5b6000601f19601f8301169050919050565b7f48656e757a2067697a6c6920616e6168746172696e697a692076652074656b6c60008201527f6966696e697a69206163696b6c6179616d617a73696e697a2e00000000000000602082015250565b7f42752069736c656d692064616861206f6e636564656e2079617074696e697a2e600082015250565b7f4275206968616c6579652074656b6c6966207961706d6164696e697a2e000000600082015250565b7f4275207965746b69796520736168697020646567696c73696e697a2e00000000600082015250565b7f4968616c6579652074656b6c6966207665726d65207375616e206b6170616c6960008201527f2e00000000000000000000000000000000000000000000000000000000000000602082015250565b7f4968616c6579652074656b6c6966207665726d65206b61706174696c64692e00600082015250565b7f4275206968616c657965207a6174656e2074656b6c69662076657264696e697a60008201527f2e00000000000000000000000000000000000000000000000000000000000000602082015250565b6117fc81611484565b811461180757600080fd5b50565b61181381611496565b811461181e57600080fd5b50565b61182a816114a2565b811461183557600080fd5b50565b611841816114cc565b811461184c57600080fd5b5056fea2646970667358221220ea185e0a4c5fe4f5ba9ba9265a161d7ae52dacd53bc791d9aef96d98f2f2993664736f6c63430008040033",
  "linkReferences": {},
  "deployedLinkReferences": {}
}