{
  "_format": "hh-sol-artifact-1",
  "contractName": "EKAPB_MAIN",
  "sourceName": "contracts/EKAPB_MAIN.sol",
  "abi": [
    {
      "inputs": [],
      "stateMutability": "nonpayable",
      "type": "constructor"
    },
    {
      "inputs": [
        {
          "internalType": "string",
          "name": "_tenderDetail",
          "type": "string"
        },
        {
          "internalType": "string",
          "name": "_tenderPublicKey",
          "type": "string"
        },
        {
          "internalType": "uint256[]",
          "name": "_competenceIDs",
          "type": "uint256[]"
        },
        {
          "internalType": "address",
          "name": "_competenceAddress",
          "type": "address"
        }
      ],
      "name": "createTender",
      "outputs": [],
      "stateMutability": "nonpayable",
      "type": "function"
    },
    {
      "inputs": [
        {
          "internalType": "address",
          "name": "_address",
          "type": "address"
        }
      ],
      "name": "getAuthorized",
      "outputs": [
        {
          "internalType": "bool",
          "name": "",
          "type": "bool"
        }
      ],
      "stateMutability": "view",
      "type": "function"
    },
    {
      "inputs": [
        {
          "internalType": "uint256",
          "name": "_index",
          "type": "uint256"
        }
      ],
      "name": "getSubContract",
      "outputs": [
        {
          "internalType": "contract EKAPB_SUB",
          "name": "",
          "type": "address"
        }
      ],
      "stateMutability": "view",
      "type": "function"
    },
    {
      "inputs": [
        {
          "internalType": "address",
          "name": "_address",
          "type": "address"
        }
      ],
      "name": "setAuthorized",
      "outputs": [],
      "stateMutability": "nonpayable",
      "type": "function"
    }
  ],
  "bytecode": "0x608060405234801561001057600080fd5b50336000806101000a81548173ffffffffffffffffffffffffffffffffffffffff021916908373ffffffffffffffffffffffffffffffffffffffff160217905550612e30806100606000396000f3fe60806040523480156200001157600080fd5b5060043610620000525760003560e01c806314fc28121462000057578063332372eb1462000077578063c731fc7b1462000097578063f411149614620000cd575b600080fd5b6200007560048036038101906200006f919062000542565b62000103565b005b6200009560048036038101906200008f91906200056e565b620001ef565b005b620000b56004803603810190620000af919062000542565b6200032d565b604051620000c4919062000781565b60405180910390f35b620000eb6004803603810190620000e5919062000625565b62000383565b604051620000fa91906200079e565b60405180910390f35b60008054906101000a900473ffffffffffffffffffffffffffffffffffffffff1673ffffffffffffffffffffffffffffffffffffffff163373ffffffffffffffffffffffffffffffffffffffff161462000194576040517f08c379a00000000000000000000000000000000000000000000000000000000081526004016200018b906200082d565b60405180910390fd5b6001600260008373ffffffffffffffffffffffffffffffffffffffff1673ffffffffffffffffffffffffffffffffffffffff16815260200190815260200160002060006101000a81548160ff02191690831515021790555050565b600260003373ffffffffffffffffffffffffffffffffffffffff1673ffffffffffffffffffffffffffffffffffffffff16815260200190815260200160002060009054906101000a900460ff166200027e576040517f08c379a000000000000000000000000000000000000000000000000000000000815260040162000275906200082d565b60405180910390fd5b600084848484336040516200029390620003f2565b620002a3959493929190620007bb565b604051809103906000f080158015620002c0573d6000803e3d6000fd5b5090506001819080600181540180825580915050600190039060005260206000200160009091909190916101000a81548173ffffffffffffffffffffffffffffffffffffffff021916908373ffffffffffffffffffffffffffffffffffffffff1602179055505050505050565b6000600260008373ffffffffffffffffffffffffffffffffffffffff1673ffffffffffffffffffffffffffffffffffffffff16815260200190815260200160002060009054906101000a900460ff169050919050565b600060018281548110620003c0577f4e487b7100000000000000000000000000000000000000000000000000000000600052603260045260246000fd5b9060005260206000200160009054906101000a900473ffffffffffffffffffffffffffffffffffffffff169050919050565b61233e8062000abd83390190565b600062000417620004118462000878565b6200084f565b905080838252602082019050828560208602820111156200043757600080fd5b60005b858110156200046b57816200045088826200052b565b8452602084019350602083019250506001810190506200043a565b5050509392505050565b60006200048c6200048684620008a7565b6200084f565b905082815260208101848484011115620004a557600080fd5b620004b2848285620009a4565b509392505050565b600081359050620004cb8162000a88565b92915050565b600082601f830112620004e357600080fd5b8135620004f584826020860162000400565b91505092915050565b600082601f8301126200051057600080fd5b81356200052284826020860162000475565b91505092915050565b6000813590506200053c8162000aa2565b92915050565b6000602082840312156200055557600080fd5b60006200056584828501620004ba565b91505092915050565b600080600080608085870312156200058557600080fd5b600085013567ffffffffffffffff811115620005a057600080fd5b620005ae87828801620004fe565b945050602085013567ffffffffffffffff811115620005cc57600080fd5b620005da87828801620004fe565b935050604085013567ffffffffffffffff811115620005f857600080fd5b6200060687828801620004d1565b92505060606200061987828801620004ba565b91505092959194509250565b6000602082840312156200063857600080fd5b600062000648848285016200052b565b91505092915050565b60006200065f838362000770565b60208301905092915050565b620006768162000932565b82525050565b60006200068982620008ed565b62000695818562000910565b9350620006a283620008dd565b8060005b83811015620006d9578151620006bd888262000651565b9750620006ca8362000903565b925050600181019050620006a6565b5085935050505092915050565b620006f18162000946565b82525050565b62000702816200097c565b82525050565b60006200071582620008f8565b62000721818562000921565b935062000733818560208601620009b3565b6200073e8162000a4e565b840191505092915050565b600062000758601c8362000921565b9150620007658262000a5f565b602082019050919050565b6200077b8162000972565b82525050565b6000602082019050620007986000830184620006e6565b92915050565b6000602082019050620007b56000830184620006f7565b92915050565b600060a0820190508181036000830152620007d7818862000708565b90508181036020830152620007ed818762000708565b905081810360408301526200080381866200067c565b90506200081460608301856200066b565b6200082360808301846200066b565b9695505050505050565b60006020820190508181036000830152620008488162000749565b9050919050565b60006200085b6200086e565b9050620008698282620009e9565b919050565b6000604051905090565b600067ffffffffffffffff82111562000896576200089562000a1f565b5b602082029050602081019050919050565b600067ffffffffffffffff821115620008c557620008c462000a1f565b5b620008d08262000a4e565b9050602081019050919050565b6000819050602082019050919050565b600081519050919050565b600081519050919050565b6000602082019050919050565b600082825260208201905092915050565b600082825260208201905092915050565b60006200093f8262000952565b9050919050565b60008115159050919050565b600073ffffffffffffffffffffffffffffffffffffffff82169050919050565b6000819050919050565b6000620009898262000990565b9050919050565b60006200099d8262000952565b9050919050565b82818337600083830152505050565b60005b83811015620009d3578082015181840152602081019050620009b6565b83811115620009e3576000848401525b50505050565b620009f48262000a4e565b810181811067ffffffffffffffff8211171562000a165762000a1562000a1f565b5b80604052505050565b7f4e487b7100000000000000000000000000000000000000000000000000000000600052604160045260246000fd5b6000601f19601f8301169050919050565b7f4275207965746b69796520736168697020646567696c73696e697a2e00000000600082015250565b62000a938162000932565b811462000a9f57600080fd5b50565b62000aad8162000972565b811462000ab957600080fd5b5056fe60806040523480156200001157600080fd5b506040516200233e3803806200233e8339818101604052810190620000379190620003a1565b84600390805190602001906200004f929190620001af565b50836004908051906020019062000068929190620001af565b5060005b835181101562000122576006848281518110620000b2577f4e487b7100000000000000000000000000000000000000000000000000000000600052603260045260246000fd5b602002602001015190806001815401808255809150506001900390600052602060002001600090919091909150556001600a600083815260200190815260200160002060006101000a81548160ff02191690831515021790555080806200011990620005dc565b9150506200006c565b50816000806101000a81548173ffffffffffffffffffffffffffffffffffffffff021916908373ffffffffffffffffffffffffffffffffffffffff16021790555080600160006101000a81548173ffffffffffffffffffffffffffffffffffffffff021916908373ffffffffffffffffffffffffffffffffffffffff1602179055505050505050620006fc565b828054620001bd9062000570565b90600052602060002090601f016020900481019282620001e157600085556200022d565b82601f10620001fc57805160ff19168380011785556200022d565b828001600101855582156200022d579182015b828111156200022c5782518255916020019190600101906200020f565b5b5090506200023c919062000240565b5090565b5b808211156200025b57600081600090555060010162000241565b5090565b600062000276620002708462000497565b6200046e565b905080838252602082019050828560208602820111156200029657600080fd5b60005b85811015620002ca5781620002af88826200038a565b84526020840193506020830192505060018101905062000299565b5050509392505050565b6000620002eb620002e584620004c6565b6200046e565b9050828152602081018484840111156200030457600080fd5b620003118482856200053a565b509392505050565b6000815190506200032a81620006c8565b92915050565b600082601f8301126200034257600080fd5b8151620003548482602086016200025f565b91505092915050565b600082601f8301126200036f57600080fd5b815162000381848260208601620002d4565b91505092915050565b6000815190506200039b81620006e2565b92915050565b600080600080600060a08688031215620003ba57600080fd5b600086015167ffffffffffffffff811115620003d557600080fd5b620003e3888289016200035d565b955050602086015167ffffffffffffffff8111156200040157600080fd5b6200040f888289016200035d565b945050604086015167ffffffffffffffff8111156200042d57600080fd5b6200043b8882890162000330565b93505060606200044e8882890162000319565b9250506080620004618882890162000319565b9150509295509295909350565b60006200047a6200048d565b9050620004888282620005a6565b919050565b6000604051905090565b600067ffffffffffffffff821115620004b557620004b462000688565b5b602082029050602081019050919050565b600067ffffffffffffffff821115620004e457620004e362000688565b5b620004ef82620006b7565b9050602081019050919050565b6000620005098262000510565b9050919050565b600073ffffffffffffffffffffffffffffffffffffffff82169050919050565b6000819050919050565b60005b838110156200055a5780820151818401526020810190506200053d565b838111156200056a576000848401525b50505050565b600060028204905060018216806200058957607f821691505b60208210811415620005a0576200059f62000659565b5b50919050565b620005b182620006b7565b810181811067ffffffffffffffff82111715620005d357620005d262000688565b5b80604052505050565b6000620005e98262000530565b91507fffffffffffffffffffffffffffffffffffffffffffffffffffffffffffffffff8214156200061f576200061e6200062a565b5b600182019050919050565b7f4e487b7100000000000000000000000000000000000000000000000000000000600052601160045260246000fd5b7f4e487b7100000000000000000000000000000000000000000000000000000000600052602260045260246000fd5b7f4e487b7100000000000000000000000000000000000000000000000000000000600052604160045260246000fd5b6000601f19601f8301169050919050565b620006d381620004fc565b8114620006df57600080fd5b50565b620006ed8162000530565b8114620006f957600080fd5b50565b611c32806200070c6000396000f3fe608060405234801561001057600080fd5b50600436106101005760003560e01c80639045106011610097578063c049144c11610066578063c049144c1461029b578063c87da02d146102cb578063cd48ddfd146102e9578063d2fdb01d146102f357610100565b8063904510601461020157806395c0d84b1461021f57806397af58741461024f5780639de317ce1461027f57610100565b80632c66e6b2116100d35780632c66e6b2146101675780637ac717b514610197578063865109f2146101b5578063896f4399146101e557610100565b8063023c28d51461010557806310a37c2614610121578063111eebeb1461013f5780631af27a5814610149575b600080fd5b61011f600480360381019061011a91906111f2565b610311565b005b610129610547565b6040516101369190611558565b60405180910390f35b610147610571565b005b61015161061e565b60405161015e91906115b7565b60405180910390f35b610181600480360381019061017c91906112d4565b6106b0565b60405161018e919061171b565b60405180910390f35b61019f6106fe565b6040516101ac919061171b565b60405180910390f35b6101cf60048036038101906101ca91906112d4565b61070b565b6040516101dc9190611558565b60405180910390f35b6101ff60048036038101906101fa9190611244565b610779565b005b610209610983565b60405161021691906115b7565b60405180910390f35b610239600480360381019061023491906111f2565b610a15565b60405161024691906116f9565b60405180910390f35b610269600480360381019061026491906112d4565b610b1e565b604051610276919061159c565b60405180910390f35b61029960048036038101906102949190611280565b610b48565b005b6102b560048036038101906102b091906111f2565b610f3e565b6040516102c2919061159c565b60405180910390f35b6102d3610f94565b6040516102e0919061171b565b60405180910390f35b6102f1610fa1565b005b6102fb61104e565b604051610308919061159c565b60405180910390f35b600160009054906101000a900473ffffffffffffffffffffffffffffffffffffffff1673ffffffffffffffffffffffffffffffffffffffff163373ffffffffffffffffffffffffffffffffffffffff16146103a1576040517f08c379a000000000000000000000000000000000000000000000000000000000815260040161039890611659565b60405180910390fd5b600860008273ffffffffffffffffffffffffffffffffffffffff1673ffffffffffffffffffffffffffffffffffffffff16815260200190815260200160002060009054906101000a900460ff1661042d576040517f08c379a0000000000000000000000000000000000000000000000000000000008152600401610424906116b9565b60405180910390fd5b6000600960008373ffffffffffffffffffffffffffffffffffffffff1673ffffffffffffffffffffffffffffffffffffffff168152602001908152602001600020600301541180156104c457506000801b600960008373ffffffffffffffffffffffffffffffffffffffff1673ffffffffffffffffffffffffffffffffffffffff1681526020019081526020016000206002015414155b610503576040517f08c379a00000000000000000000000000000000000000000000000000000000081526004016104fa906115d9565b60405180910390fd5b80600260006101000a81548173ffffffffffffffffffffffffffffffffffffffff021916908373ffffffffffffffffffffffffffffffffffffffff16021790555050565b6000600260009054906101000a900473ffffffffffffffffffffffffffffffffffffffff16905090565b600160009054906101000a900473ffffffffffffffffffffffffffffffffffffffff1673ffffffffffffffffffffffffffffffffffffffff163373ffffffffffffffffffffffffffffffffffffffff1614610601576040517f08c379a00000000000000000000000000000000000000000000000000000000081526004016105f890611659565b60405180910390fd5b6001600560006101000a81548160ff021916908315150217905550565b60606003805461062d9061184d565b80601f01602080910402602001604051908101604052809291908181526020018280546106599061184d565b80156106a65780601f1061067b576101008083540402835291602001916106a6565b820191906000526020600020905b81548152906001019060200180831161068957829003601f168201915b5050505050905090565b6000600682815481106106ec577f4e487b7100000000000000000000000000000000000000000000000000000000600052603260045260246000fd5b90600052602060002001549050919050565b6000600680549050905090565b600060078281548110610747577f4e487b7100000000000000000000000000000000000000000000000000000000600052603260045260246000fd5b9060005260206000200160009054906101000a900473ffffffffffffffffffffffffffffffffffffffff169050919050565b600560019054906101000a900460ff166107c8576040517f08c379a00000000000000000000000000000000000000000000000000000000081526004016107bf906115f9565b60405180910390fd5b600860003373ffffffffffffffffffffffffffffffffffffffff1673ffffffffffffffffffffffffffffffffffffffff16815260200190815260200160002060009054906101000a900460ff16610854576040517f08c379a000000000000000000000000000000000000000000000000000000000815260040161084b90611639565b60405180910390fd5b6000600960003373ffffffffffffffffffffffffffffffffffffffff1673ffffffffffffffffffffffffffffffffffffffff168152602001908152602001600020600301541480156108ea57506000801b600960003373ffffffffffffffffffffffffffffffffffffffff1673ffffffffffffffffffffffffffffffffffffffff16815260200190815260200160002060020154145b610929576040517f08c379a000000000000000000000000000000000000000000000000000000000815260040161092090611619565b60405180910390fd5b6000600960003373ffffffffffffffffffffffffffffffffffffffff1673ffffffffffffffffffffffffffffffffffffffff1681526020019081526020016000209050828160020181905550818160030181905550505050565b6060600480546109929061184d565b80601f01602080910402602001604051908101604052809291908181526020018280546109be9061184d565b8015610a0b5780601f106109e057610100808354040283529160200191610a0b565b820191906000526020600020905b8154815290600101906020018083116109ee57829003601f168201915b5050505050905090565b610a1d611065565b600960008373ffffffffffffffffffffffffffffffffffffffff1673ffffffffffffffffffffffffffffffffffffffff168152602001908152602001600020604051806080016040529081600082018054610a779061184d565b80601f0160208091040260200160405190810160405280929190818152602001828054610aa39061184d565b8015610af05780601f10610ac557610100808354040283529160200191610af0565b820191906000526020600020905b815481529060010190602001808311610ad357829003601f168201915b5050505050815260200160018201548152602001600282015481526020016003820154815250509050919050565b6000600a600083815260200190815260200160002060009054906101000a900460ff169050919050565b600080600090505b600680549050811015610c70576001151560008054906101000a900473ffffffffffffffffffffffffffffffffffffffff1673ffffffffffffffffffffffffffffffffffffffff1663381fd3013360068581548110610bd8577f4e487b7100000000000000000000000000000000000000000000000000000000600052603260045260246000fd5b90600052602060002001546040518363ffffffff1660e01b8152600401610c00929190611573565b60206040518083038186803b158015610c1857600080fd5b505afa158015610c2c573d6000803e3d6000fd5b505050506040513d601f19601f82011682018060405250810190610c50919061121b565b15151415610c5d57600191505b8080610c68906118b0565b915050610b50565b506001151581151514610cb8576040517f08c379a0000000000000000000000000000000000000000000000000000000008152600401610caf90611659565b60405180910390fd5b600560009054906101000a900460ff16610d07576040517f08c379a0000000000000000000000000000000000000000000000000000000008152600401610cfe90611679565b60405180910390fd5b600560019054906101000a900460ff1615610d57576040517f08c379a0000000000000000000000000000000000000000000000000000000008152600401610d4e90611699565b60405180910390fd5b600860003373ffffffffffffffffffffffffffffffffffffffff1673ffffffffffffffffffffffffffffffffffffffff16815260200190815260200160002060009054906101000a900460ff1615610de4576040517f08c379a0000000000000000000000000000000000000000000000000000000008152600401610ddb906116d9565b60405180910390fd5b610dec611065565b8381600001819052508281602001818152505080600960003373ffffffffffffffffffffffffffffffffffffffff1673ffffffffffffffffffffffffffffffffffffffff1681526020019081526020016000206000820151816000019080519060200190610e5b929190611093565b506020820151816001015560408201518160020155606082015181600301559050506007339080600181540180825580915050600190039060005260206000200160009091909190916101000a81548173ffffffffffffffffffffffffffffffffffffffff021916908373ffffffffffffffffffffffffffffffffffffffff1602179055506001600860003373ffffffffffffffffffffffffffffffffffffffff1673ffffffffffffffffffffffffffffffffffffffff16815260200190815260200160002060006101000a81548160ff02191690831515021790555050505050565b6000600860008373ffffffffffffffffffffffffffffffffffffffff1673ffffffffffffffffffffffffffffffffffffffff16815260200190815260200160002060009054906101000a900460ff169050919050565b6000600780549050905090565b600160009054906101000a900473ffffffffffffffffffffffffffffffffffffffff1673ffffffffffffffffffffffffffffffffffffffff163373ffffffffffffffffffffffffffffffffffffffff1614611031576040517f08c379a000000000000000000000000000000000000000000000000000000000815260040161102890611659565b60405180910390fd5b6001600560016101000a81548160ff021916908315150217905550565b6000600560029054906101000a900460ff16905090565b6040518060800160405280606081526020016000801916815260200160008019168152602001600081525090565b82805461109f9061184d565b90600052602060002090601f0160209004810192826110c15760008555611108565b82601f106110da57805160ff1916838001178555611108565b82800160010185558215611108579182015b828111156111075782518255916020019190600101906110ec565b5b5090506111159190611119565b5090565b5b8082111561113257600081600090555060010161111a565b5090565b60006111496111448461175b565b611736565b90508281526020810184848401111561116157600080fd5b61116c84828561180b565b509392505050565b60008135905061118381611ba0565b92915050565b60008151905061119881611bb7565b92915050565b6000813590506111ad81611bce565b92915050565b600082601f8301126111c457600080fd5b81356111d4848260208601611136565b91505092915050565b6000813590506111ec81611be5565b92915050565b60006020828403121561120457600080fd5b600061121284828501611174565b91505092915050565b60006020828403121561122d57600080fd5b600061123b84828501611189565b91505092915050565b6000806040838503121561125757600080fd5b60006112658582860161119e565b9250506020611276858286016111dd565b9150509250929050565b6000806040838503121561129357600080fd5b600083013567ffffffffffffffff8111156112ad57600080fd5b6112b9858286016111b3565b92505060206112ca8582860161119e565b9150509250929050565b6000602082840312156112e657600080fd5b60006112f4848285016111dd565b91505092915050565b611306816117b9565b82525050565b611315816117cb565b82525050565b611324816117d7565b82525050565b60006113358261178c565b61133f8185611797565b935061134f81856020860161181a565b61135881611986565b840191505092915050565b600061136e8261178c565b61137881856117a8565b935061138881856020860161181a565b61139181611986565b840191505092915050565b60006113a96022836117a8565b91506113b482611997565b604082019050919050565b60006113cc6039836117a8565b91506113d7826119e6565b604082019050919050565b60006113ef6020836117a8565b91506113fa82611a35565b602082019050919050565b6000611412601d836117a8565b915061141d82611a5e565b602082019050919050565b6000611435601c836117a8565b915061144082611a87565b602082019050919050565b60006114586021836117a8565b915061146382611ab0565b604082019050919050565b600061147b601f836117a8565b915061148682611aff565b602082019050919050565b600061149e601b836117a8565b91506114a982611b28565b602082019050919050565b60006114c16021836117a8565b91506114cc82611b51565b604082019050919050565b600060808301600083015184820360008601526114f4828261132a565b9150506020830151611509602086018261131b565b50604083015161151c604086018261131b565b50606083015161152f606086018261153a565b508091505092915050565b61154381611801565b82525050565b61155281611801565b82525050565b600060208201905061156d60008301846112fd565b92915050565b600060408201905061158860008301856112fd565b6115956020830184611549565b9392505050565b60006020820190506115b1600083018461130c565b92915050565b600060208201905081810360008301526115d18184611363565b905092915050565b600060208201905081810360008301526115f28161139c565b9050919050565b60006020820190508181036000830152611612816113bf565b9050919050565b60006020820190508181036000830152611632816113e2565b9050919050565b6000602082019050818103600083015261165281611405565b9050919050565b6000602082019050818103600083015261167281611428565b9050919050565b600060208201905081810360008301526116928161144b565b9050919050565b600060208201905081810360008301526116b28161146e565b9050919050565b600060208201905081810360008301526116d281611491565b9050919050565b600060208201905081810360008301526116f2816114b4565b9050919050565b6000602082019050818103600083015261171381846114d7565b905092915050565b60006020820190506117306000830184611549565b92915050565b6000611740611751565b905061174c828261187f565b919050565b6000604051905090565b600067ffffffffffffffff82111561177657611775611957565b5b61177f82611986565b9050602081019050919050565b600081519050919050565b600082825260208201905092915050565b600082825260208201905092915050565b60006117c4826117e1565b9050919050565b60008115159050919050565b6000819050919050565b600073ffffffffffffffffffffffffffffffffffffffff82169050919050565b6000819050919050565b82818337600083830152505050565b60005b8381101561183857808201518184015260208101905061181d565b83811115611847576000848401525b50505050565b6000600282049050600182168061186557607f821691505b6020821081141561187957611878611928565b5b50919050565b61188882611986565b810181811067ffffffffffffffff821117156118a7576118a6611957565b5b80604052505050565b60006118bb82611801565b91507fffffffffffffffffffffffffffffffffffffffffffffffffffffffffffffffff8214156118ee576118ed6118f9565b5b600182019050919050565b7f4e487b7100000000000000000000000000000000000000000000000000000000600052601160045260246000fd5b7f4e487b7100000000000000000000000000000000000000000000000000000000600052602260045260246000fd5b7f4e487b7100000000000000000000000000000000000000000000000000000000600052604160045260246000fd5b6000601f19601f8301169050919050565b7f4275206164726573206968616c652062696c67696c6572696e692061636d616460008201527f692e000000000000000000000000000000000000000000000000000000000000602082015250565b7f48656e757a2067697a6c6920616e6168746172696e697a692076652074656b6c60008201527f6966696e697a69206163696b6c6179616d617a73696e697a2e00000000000000602082015250565b7f42752069736c656d692064616861206f6e636564656e2079617074696e697a2e600082015250565b7f4275206968616c6579652074656b6c6966207961706d6164696e697a2e000000600082015250565b7f4275207965746b69796520736168697020646567696c73696e697a2e00000000600082015250565b7f4968616c6579652074656b6c6966207665726d65207375616e206b6170616c6960008201527f2e00000000000000000000000000000000000000000000000000000000000000602082015250565b7f4968616c6579652074656b6c6966207665726d65206b61706174696c64692e00600082015250565b7f4275206164726573206968616c657965206b6174696c6d6164692e0000000000600082015250565b7f4275206968616c657965207a6174656e2074656b6c69662076657264696e697a60008201527f2e00000000000000000000000000000000000000000000000000000000000000602082015250565b611ba9816117b9565b8114611bb457600080fd5b50565b611bc0816117cb565b8114611bcb57600080fd5b50565b611bd7816117d7565b8114611be257600080fd5b50565b611bee81611801565b8114611bf957600080fd5b5056fea26469706673582212209873c2cbaeaa14fffa74c6c424b1a7013da45f5e57b494d6dfc9ee346032be4a64736f6c63430008040033a2646970667358221220fcf0a6818752848460a8a98fe2a880f61ed769745cb61a6d96e508230596aff664736f6c63430008040033",
  "linkReferences": {},
  "deployedLinkReferences": {}
}