{
  "_format": "hh-sol-artifact-1",
  "contractName": "EKAPB_MAIN",
  "sourceName": "contracts/EKAPB_MAIN.sol",
  "abi": [
    {
      "inputs": [],
      "stateMutability": "nonpayable",
      "type": "constructor"
    },
    {
      "inputs": [
        {
          "internalType": "string",
          "name": "_tenderDetail",
          "type": "string"
        },
        {
          "internalType": "string",
          "name": "_tenderPublicKey",
          "type": "string"
        },
        {
          "internalType": "uint256[]",
          "name": "_competenceIDs",
          "type": "uint256[]"
        },
        {
          "internalType": "address",
          "name": "_competenceAddress",
          "type": "address"
        }
      ],
      "name": "createTender",
      "outputs": [],
      "stateMutability": "nonpayable",
      "type": "function"
    },
    {
      "inputs": [
        {
          "internalType": "address",
          "name": "_address",
          "type": "address"
        }
      ],
      "name": "getAuthorized",
      "outputs": [
        {
          "internalType": "bool",
          "name": "",
          "type": "bool"
        }
      ],
      "stateMutability": "view",
      "type": "function"
    },
    {
      "inputs": [
        {
          "internalType": "uint256",
          "name": "_index",
          "type": "uint256"
        }
      ],
      "name": "getSubContract",
      "outputs": [
        {
          "internalType": "contract EKAPB_SUB",
          "name": "",
          "type": "address"
        }
      ],
      "stateMutability": "view",
      "type": "function"
    },
    {
      "inputs": [
        {
          "internalType": "address",
          "name": "_address",
          "type": "address"
        }
      ],
      "name": "setAuthorized",
      "outputs": [],
      "stateMutability": "nonpayable",
      "type": "function"
    }
  ],
  "bytecode": "0x608060405234801561001057600080fd5b50336000806101000a81548173ffffffffffffffffffffffffffffffffffffffff021916908373ffffffffffffffffffffffffffffffffffffffff160217905550612a82806100606000396000f3fe60806040523480156200001157600080fd5b5060043610620000525760003560e01c806314fc28121462000057578063332372eb1462000077578063c731fc7b1462000097578063f411149614620000cd575b600080fd5b6200007560048036038101906200006f919062000542565b62000103565b005b6200009560048036038101906200008f91906200056e565b620001ef565b005b620000b56004803603810190620000af919062000542565b6200032d565b604051620000c4919062000781565b60405180910390f35b620000eb6004803603810190620000e5919062000625565b62000383565b604051620000fa91906200079e565b60405180910390f35b60008054906101000a900473ffffffffffffffffffffffffffffffffffffffff1673ffffffffffffffffffffffffffffffffffffffff163373ffffffffffffffffffffffffffffffffffffffff161462000194576040517f08c379a00000000000000000000000000000000000000000000000000000000081526004016200018b906200082d565b60405180910390fd5b6001600260008373ffffffffffffffffffffffffffffffffffffffff1673ffffffffffffffffffffffffffffffffffffffff16815260200190815260200160002060006101000a81548160ff02191690831515021790555050565b600260003373ffffffffffffffffffffffffffffffffffffffff1673ffffffffffffffffffffffffffffffffffffffff16815260200190815260200160002060009054906101000a900460ff166200027e576040517f08c379a000000000000000000000000000000000000000000000000000000000815260040162000275906200082d565b60405180910390fd5b600084848484336040516200029390620003f2565b620002a3959493929190620007bb565b604051809103906000f080158015620002c0573d6000803e3d6000fd5b5090506001819080600181540180825580915050600190039060005260206000200160009091909190916101000a81548173ffffffffffffffffffffffffffffffffffffffff021916908373ffffffffffffffffffffffffffffffffffffffff1602179055505050505050565b6000600260008373ffffffffffffffffffffffffffffffffffffffff1673ffffffffffffffffffffffffffffffffffffffff16815260200190815260200160002060009054906101000a900460ff169050919050565b600060018281548110620003c0577f4e487b7100000000000000000000000000000000000000000000000000000000600052603260045260246000fd5b9060005260206000200160009054906101000a900473ffffffffffffffffffffffffffffffffffffffff169050919050565b611f908062000abd83390190565b600062000417620004118462000878565b6200084f565b905080838252602082019050828560208602820111156200043757600080fd5b60005b858110156200046b57816200045088826200052b565b8452602084019350602083019250506001810190506200043a565b5050509392505050565b60006200048c6200048684620008a7565b6200084f565b905082815260208101848484011115620004a557600080fd5b620004b2848285620009a4565b509392505050565b600081359050620004cb8162000a88565b92915050565b600082601f830112620004e357600080fd5b8135620004f584826020860162000400565b91505092915050565b600082601f8301126200051057600080fd5b81356200052284826020860162000475565b91505092915050565b6000813590506200053c8162000aa2565b92915050565b6000602082840312156200055557600080fd5b60006200056584828501620004ba565b91505092915050565b600080600080608085870312156200058557600080fd5b600085013567ffffffffffffffff811115620005a057600080fd5b620005ae87828801620004fe565b945050602085013567ffffffffffffffff811115620005cc57600080fd5b620005da87828801620004fe565b935050604085013567ffffffffffffffff811115620005f857600080fd5b6200060687828801620004d1565b92505060606200061987828801620004ba565b91505092959194509250565b6000602082840312156200063857600080fd5b600062000648848285016200052b565b91505092915050565b60006200065f838362000770565b60208301905092915050565b620006768162000932565b82525050565b60006200068982620008ed565b62000695818562000910565b9350620006a283620008dd565b8060005b83811015620006d9578151620006bd888262000651565b9750620006ca8362000903565b925050600181019050620006a6565b5085935050505092915050565b620006f18162000946565b82525050565b62000702816200097c565b82525050565b60006200071582620008f8565b62000721818562000921565b935062000733818560208601620009b3565b6200073e8162000a4e565b840191505092915050565b600062000758601c8362000921565b9150620007658262000a5f565b602082019050919050565b6200077b8162000972565b82525050565b6000602082019050620007986000830184620006e6565b92915050565b6000602082019050620007b56000830184620006f7565b92915050565b600060a0820190508181036000830152620007d7818862000708565b90508181036020830152620007ed818762000708565b905081810360408301526200080381866200067c565b90506200081460608301856200066b565b6200082360808301846200066b565b9695505050505050565b60006020820190508181036000830152620008488162000749565b9050919050565b60006200085b6200086e565b9050620008698282620009e9565b919050565b6000604051905090565b600067ffffffffffffffff82111562000896576200089562000a1f565b5b602082029050602081019050919050565b600067ffffffffffffffff821115620008c557620008c462000a1f565b5b620008d08262000a4e565b9050602081019050919050565b6000819050602082019050919050565b600081519050919050565b600081519050919050565b6000602082019050919050565b600082825260208201905092915050565b600082825260208201905092915050565b60006200093f8262000952565b9050919050565b60008115159050919050565b600073ffffffffffffffffffffffffffffffffffffffff82169050919050565b6000819050919050565b6000620009898262000990565b9050919050565b60006200099d8262000952565b9050919050565b82818337600083830152505050565b60005b83811015620009d3578082015181840152602081019050620009b6565b83811115620009e3576000848401525b50505050565b620009f48262000a4e565b810181811067ffffffffffffffff8211171562000a165762000a1562000a1f565b5b80604052505050565b7f4e487b7100000000000000000000000000000000000000000000000000000000600052604160045260246000fd5b6000601f19601f8301169050919050565b7f4275207965746b69796520736168697020646567696c73696e697a2e00000000600082015250565b62000a938162000932565b811462000a9f57600080fd5b50565b62000aad8162000972565b811462000ab957600080fd5b5056fe60806040523480156200001157600080fd5b5060405162001f9038038062001f908339818101604052810190620000379190620003a1565b84600290805190602001906200004f929190620001af565b50836003908051906020019062000068929190620001af565b5060005b835181101562000122576005848281518110620000b2577f4e487b7100000000000000000000000000000000000000000000000000000000600052603260045260246000fd5b6020026020010151908060018154018082558091505060019003906000526020600020016000909190919091505560016009600083815260200190815260200160002060006101000a81548160ff02191690831515021790555080806200011990620005dc565b9150506200006c565b50816000806101000a81548173ffffffffffffffffffffffffffffffffffffffff021916908373ffffffffffffffffffffffffffffffffffffffff16021790555080600160006101000a81548173ffffffffffffffffffffffffffffffffffffffff021916908373ffffffffffffffffffffffffffffffffffffffff1602179055505050505050620006fc565b828054620001bd9062000570565b90600052602060002090601f016020900481019282620001e157600085556200022d565b82601f10620001fc57805160ff19168380011785556200022d565b828001600101855582156200022d579182015b828111156200022c5782518255916020019190600101906200020f565b5b5090506200023c919062000240565b5090565b5b808211156200025b57600081600090555060010162000241565b5090565b600062000276620002708462000497565b6200046e565b905080838252602082019050828560208602820111156200029657600080fd5b60005b85811015620002ca5781620002af88826200038a565b84526020840193506020830192505060018101905062000299565b5050509392505050565b6000620002eb620002e584620004c6565b6200046e565b9050828152602081018484840111156200030457600080fd5b620003118482856200053a565b509392505050565b6000815190506200032a81620006c8565b92915050565b600082601f8301126200034257600080fd5b8151620003548482602086016200025f565b91505092915050565b600082601f8301126200036f57600080fd5b815162000381848260208601620002d4565b91505092915050565b6000815190506200039b81620006e2565b92915050565b600080600080600060a08688031215620003ba57600080fd5b600086015167ffffffffffffffff811115620003d557600080fd5b620003e3888289016200035d565b955050602086015167ffffffffffffffff8111156200040157600080fd5b6200040f888289016200035d565b945050604086015167ffffffffffffffff8111156200042d57600080fd5b6200043b8882890162000330565b93505060606200044e8882890162000319565b9250506080620004618882890162000319565b9150509295509295909350565b60006200047a6200048d565b9050620004888282620005a6565b919050565b6000604051905090565b600067ffffffffffffffff821115620004b557620004b462000688565b5b602082029050602081019050919050565b600067ffffffffffffffff821115620004e457620004e362000688565b5b620004ef82620006b7565b9050602081019050919050565b6000620005098262000510565b9050919050565b600073ffffffffffffffffffffffffffffffffffffffff82169050919050565b6000819050919050565b60005b838110156200055a5780820151818401526020810190506200053d565b838111156200056a576000848401525b50505050565b600060028204905060018216806200058957607f821691505b60208210811415620005a0576200059f62000659565b5b50919050565b620005b182620006b7565b810181811067ffffffffffffffff82111715620005d357620005d262000688565b5b80604052505050565b6000620005e98262000530565b91507fffffffffffffffffffffffffffffffffffffffffffffffffffffffffffffffff8214156200061f576200061e6200062a565b5b600182019050919050565b7f4e487b7100000000000000000000000000000000000000000000000000000000600052601160045260246000fd5b7f4e487b7100000000000000000000000000000000000000000000000000000000600052602260045260246000fd5b7f4e487b7100000000000000000000000000000000000000000000000000000000600052604160045260246000fd5b6000601f19601f8301169050919050565b620006d381620004fc565b8114620006df57600080fd5b50565b620006ed8162000530565b8114620006f957600080fd5b50565b611884806200070c6000396000f3fe608060405234801561001057600080fd5b50600436106100ea5760003560e01c806395c0d84b1161008c578063c049144c11610066578063c049144c1461024b578063c87da02d1461027b578063cd48ddfd14610299578063d2fdb01d146102a3576100ea565b806395c0d84b146101cf57806397af5874146101ff5780639de317ce1461022f576100ea565b80637ac717b5116100c85780637ac717b514610147578063865109f214610165578063896f43991461019557806390451060146101b1576100ea565b8063111eebeb146100ef5780631af27a58146100f95780632c66e6b214610117575b600080fd5b6100f76102c1565b005b61010161036e565b60405161010e91906112c1565b60405180910390f35b610131600480360381019061012c9190611024565b610400565b60405161013e91906113e5565b60405180910390f35b61014f61044e565b60405161015c91906113e5565b60405180910390f35b61017f600480360381019061017a9190611024565b61045b565b60405161018c9190611262565b60405180910390f35b6101af60048036038101906101aa9190610f94565b6104c9565b005b6101b96106d4565b6040516101c691906112c1565b60405180910390f35b6101e960048036038101906101e49190610f42565b610766565b6040516101f691906113c3565b60405180910390f35b61021960048036038101906102149190611024565b61086f565b60405161022691906112a6565b60405180910390f35b61024960048036038101906102449190610fd0565b610899565b005b61026560048036038101906102609190610f42565b610c8e565b60405161027291906112a6565b60405180910390f35b610283610ce4565b60405161029091906113e5565b60405180910390f35b6102a1610cf1565b005b6102ab610d9e565b6040516102b891906112a6565b60405180910390f35b600160009054906101000a900473ffffffffffffffffffffffffffffffffffffffff1673ffffffffffffffffffffffffffffffffffffffff163373ffffffffffffffffffffffffffffffffffffffff1614610351576040517f08c379a000000000000000000000000000000000000000000000000000000000815260040161034890611343565b60405180910390fd5b6001600460006101000a81548160ff021916908315150217905550565b60606002805461037d90611517565b80601f01602080910402602001604051908101604052809291908181526020018280546103a990611517565b80156103f65780601f106103cb576101008083540402835291602001916103f6565b820191906000526020600020905b8154815290600101906020018083116103d957829003601f168201915b5050505050905090565b60006005828154811061043c577f4e487b7100000000000000000000000000000000000000000000000000000000600052603260045260246000fd5b90600052602060002001549050919050565b6000600580549050905090565b600060068281548110610497577f4e487b7100000000000000000000000000000000000000000000000000000000600052603260045260246000fd5b9060005260206000200160009054906101000a900473ffffffffffffffffffffffffffffffffffffffff169050919050565b600460019054906101000a900460ff16610518576040517f08c379a000000000000000000000000000000000000000000000000000000000815260040161050f906112e3565b60405180910390fd5b6000600860003373ffffffffffffffffffffffffffffffffffffffff1673ffffffffffffffffffffffffffffffffffffffff168152602001908152602001600020600301541180156105af57506000801b600860003373ffffffffffffffffffffffffffffffffffffffff1673ffffffffffffffffffffffffffffffffffffffff1681526020019081526020016000206002015414155b6105ee576040517f08c379a00000000000000000000000000000000000000000000000000000000081526004016105e590611303565b60405180910390fd5b600760003373ffffffffffffffffffffffffffffffffffffffff1673ffffffffffffffffffffffffffffffffffffffff16815260200190815260200160002060009054906101000a900460ff1661067a576040517f08c379a000000000000000000000000000000000000000000000000000000000815260040161067190611323565b60405180910390fd5b6000600860003373ffffffffffffffffffffffffffffffffffffffff1673ffffffffffffffffffffffffffffffffffffffff1681526020019081526020016000209050828160020181905550818160030181905550505050565b6060600380546106e390611517565b80601f016020809104026020016040519081016040528092919081815260200182805461070f90611517565b801561075c5780601f106107315761010080835404028352916020019161075c565b820191906000526020600020905b81548152906001019060200180831161073f57829003601f168201915b5050505050905090565b61076e610db5565b600860008373ffffffffffffffffffffffffffffffffffffffff1673ffffffffffffffffffffffffffffffffffffffff1681526020019081526020016000206040518060800160405290816000820180546107c890611517565b80601f01602080910402602001604051908101604052809291908181526020018280546107f490611517565b80156108415780601f1061081657610100808354040283529160200191610841565b820191906000526020600020905b81548152906001019060200180831161082457829003601f168201915b5050505050815260200160018201548152602001600282015481526020016003820154815250509050919050565b60006009600083815260200190815260200160002060009054906101000a900460ff169050919050565b600080600090505b6005805490508110156109c1576001151560008054906101000a900473ffffffffffffffffffffffffffffffffffffffff1673ffffffffffffffffffffffffffffffffffffffff1663381fd3013360058581548110610929577f4e487b7100000000000000000000000000000000000000000000000000000000600052603260045260246000fd5b90600052602060002001546040518363ffffffff1660e01b815260040161095192919061127d565b60206040518083038186803b15801561096957600080fd5b505afa15801561097d573d6000803e3d6000fd5b505050506040513d601f19601f820116820180604052508101906109a19190610f6b565b151514156109ae57600191505b80806109b99061157a565b9150506108a1565b506001151581151514610a09576040517f08c379a0000000000000000000000000000000000000000000000000000000008152600401610a0090611343565b60405180910390fd5b600460009054906101000a900460ff16610a58576040517f08c379a0000000000000000000000000000000000000000000000000000000008152600401610a4f90611363565b60405180910390fd5b600460019054906101000a900460ff1615610aa8576040517f08c379a0000000000000000000000000000000000000000000000000000000008152600401610a9f90611383565b60405180910390fd5b600760003373ffffffffffffffffffffffffffffffffffffffff1673ffffffffffffffffffffffffffffffffffffffff16815260200190815260200160002060009054906101000a900460ff16610b34576040517f08c379a0000000000000000000000000000000000000000000000000000000008152600401610b2b906113a3565b60405180910390fd5b610b3c610db5565b8381600001819052508281602001818152505080600860003373ffffffffffffffffffffffffffffffffffffffff1673ffffffffffffffffffffffffffffffffffffffff1681526020019081526020016000206000820151816000019080519060200190610bab929190610de3565b506020820151816001015560408201518160020155606082015181600301559050506006339080600181540180825580915050600190039060005260206000200160009091909190916101000a81548173ffffffffffffffffffffffffffffffffffffffff021916908373ffffffffffffffffffffffffffffffffffffffff1602179055506001600760003373ffffffffffffffffffffffffffffffffffffffff1673ffffffffffffffffffffffffffffffffffffffff16815260200190815260200160002060006101000a81548160ff02191690831515021790555050505050565b6000600760008373ffffffffffffffffffffffffffffffffffffffff1673ffffffffffffffffffffffffffffffffffffffff16815260200190815260200160002060009054906101000a900460ff169050919050565b6000600680549050905090565b600160009054906101000a900473ffffffffffffffffffffffffffffffffffffffff1673ffffffffffffffffffffffffffffffffffffffff163373ffffffffffffffffffffffffffffffffffffffff1614610d81576040517f08c379a0000000000000000000000000000000000000000000000000000000008152600401610d7890611343565b60405180910390fd5b6001600460016101000a81548160ff021916908315150217905550565b6000600460029054906101000a900460ff16905090565b6040518060800160405280606081526020016000801916815260200160008019168152602001600081525090565b828054610def90611517565b90600052602060002090601f016020900481019282610e115760008555610e58565b82601f10610e2a57805160ff1916838001178555610e58565b82800160010185558215610e58579182015b82811115610e57578251825591602001919060010190610e3c565b5b509050610e659190610e69565b5090565b5b80821115610e82576000816000905550600101610e6a565b5090565b6000610e99610e9484611425565b611400565b905082815260208101848484011115610eb157600080fd5b610ebc8482856114d5565b509392505050565b600081359050610ed3816117f2565b92915050565b600081519050610ee881611809565b92915050565b600081359050610efd81611820565b92915050565b600082601f830112610f1457600080fd5b8135610f24848260208601610e86565b91505092915050565b600081359050610f3c81611837565b92915050565b600060208284031215610f5457600080fd5b6000610f6284828501610ec4565b91505092915050565b600060208284031215610f7d57600080fd5b6000610f8b84828501610ed9565b91505092915050565b60008060408385031215610fa757600080fd5b6000610fb585828601610eee565b9250506020610fc685828601610f2d565b9150509250929050565b60008060408385031215610fe357600080fd5b600083013567ffffffffffffffff811115610ffd57600080fd5b61100985828601610f03565b925050602061101a85828601610eee565b9150509250929050565b60006020828403121561103657600080fd5b600061104484828501610f2d565b91505092915050565b61105681611483565b82525050565b61106581611495565b82525050565b611074816114a1565b82525050565b600061108582611456565b61108f8185611461565b935061109f8185602086016114e4565b6110a881611650565b840191505092915050565b60006110be82611456565b6110c88185611472565b93506110d88185602086016114e4565b6110e181611650565b840191505092915050565b60006110f9603983611472565b915061110482611661565b604082019050919050565b600061111c602083611472565b9150611127826116b0565b602082019050919050565b600061113f601d83611472565b915061114a826116d9565b602082019050919050565b6000611162601c83611472565b915061116d82611702565b602082019050919050565b6000611185602183611472565b91506111908261172b565b604082019050919050565b60006111a8601f83611472565b91506111b38261177a565b602082019050919050565b60006111cb602183611472565b91506111d6826117a3565b604082019050919050565b600060808301600083015184820360008601526111fe828261107a565b9150506020830151611213602086018261106b565b506040830151611226604086018261106b565b5060608301516112396060860182611244565b508091505092915050565b61124d816114cb565b82525050565b61125c816114cb565b82525050565b6000602082019050611277600083018461104d565b92915050565b6000604082019050611292600083018561104d565b61129f6020830184611253565b9392505050565b60006020820190506112bb600083018461105c565b92915050565b600060208201905081810360008301526112db81846110b3565b905092915050565b600060208201905081810360008301526112fc816110ec565b9050919050565b6000602082019050818103600083015261131c8161110f565b9050919050565b6000602082019050818103600083015261133c81611132565b9050919050565b6000602082019050818103600083015261135c81611155565b9050919050565b6000602082019050818103600083015261137c81611178565b9050919050565b6000602082019050818103600083015261139c8161119b565b9050919050565b600060208201905081810360008301526113bc816111be565b9050919050565b600060208201905081810360008301526113dd81846111e1565b905092915050565b60006020820190506113fa6000830184611253565b92915050565b600061140a61141b565b90506114168282611549565b919050565b6000604051905090565b600067ffffffffffffffff8211156114405761143f611621565b5b61144982611650565b9050602081019050919050565b600081519050919050565b600082825260208201905092915050565b600082825260208201905092915050565b600061148e826114ab565b9050919050565b60008115159050919050565b6000819050919050565b600073ffffffffffffffffffffffffffffffffffffffff82169050919050565b6000819050919050565b82818337600083830152505050565b60005b838110156115025780820151818401526020810190506114e7565b83811115611511576000848401525b50505050565b6000600282049050600182168061152f57607f821691505b60208210811415611543576115426115f2565b5b50919050565b61155282611650565b810181811067ffffffffffffffff8211171561157157611570611621565b5b80604052505050565b6000611585826114cb565b91507fffffffffffffffffffffffffffffffffffffffffffffffffffffffffffffffff8214156115b8576115b76115c3565b5b600182019050919050565b7f4e487b7100000000000000000000000000000000000000000000000000000000600052601160045260246000fd5b7f4e487b7100000000000000000000000000000000000000000000000000000000600052602260045260246000fd5b7f4e487b7100000000000000000000000000000000000000000000000000000000600052604160045260246000fd5b6000601f19601f8301169050919050565b7f48656e757a2067697a6c6920616e6168746172696e697a692076652074656b6c60008201527f6966696e697a69206163696b6c6179616d617a73696e697a2e00000000000000602082015250565b7f42752069736c656d692064616861206f6e636564656e2079617074696e697a2e600082015250565b7f4275206968616c6579652074656b6c6966207961706d6164696e697a2e000000600082015250565b7f4275207965746b69796520736168697020646567696c73696e697a2e00000000600082015250565b7f4968616c6579652074656b6c6966207665726d65207375616e206b6170616c6960008201527f2e00000000000000000000000000000000000000000000000000000000000000602082015250565b7f4968616c6579652074656b6c6966207665726d65206b61706174696c64692e00600082015250565b7f4275206968616c657965207a6174656e2074656b6c69662076657264696e697a60008201527f2e00000000000000000000000000000000000000000000000000000000000000602082015250565b6117fb81611483565b811461180657600080fd5b50565b61181281611495565b811461181d57600080fd5b50565b611829816114a1565b811461183457600080fd5b50565b611840816114cb565b811461184b57600080fd5b5056fea264697066735822122043f44e7d98e8c9b87a73254aa829fa1f9016309303a9b05f2b7d4d319d2c5bd764736f6c63430008040033a2646970667358221220021b4ce120494ab7b55aecc71719116fa8ddcec78a707e6305900d542eb89ab264736f6c63430008040033",
  "linkReferences": {},
  "deployedLinkReferences": {}
}