{
  "_format": "hh-sol-artifact-1",
  "contractName": "EKAPB_MAIN",
  "sourceName": "contracts/EKAPB_MAIN.sol",
  "abi": [
    {
      "inputs": [],
      "stateMutability": "nonpayable",
      "type": "constructor"
    },
    {
      "inputs": [
        {
          "internalType": "string",
          "name": "_tenderDetail",
          "type": "string"
        },
        {
          "internalType": "string",
          "name": "_tenderPublicKey",
          "type": "string"
        },
        {
          "internalType": "uint256[]",
          "name": "_competenceIDs",
          "type": "uint256[]"
        }
      ],
      "name": "createTender",
      "outputs": [],
      "stateMutability": "nonpayable",
      "type": "function"
    },
    {
      "inputs": [
        {
          "internalType": "address",
          "name": "_address",
          "type": "address"
        }
      ],
      "name": "getAuthorized",
      "outputs": [
        {
          "internalType": "bool",
          "name": "",
          "type": "bool"
        }
      ],
      "stateMutability": "view",
      "type": "function"
    },
    {
      "inputs": [
        {
          "internalType": "uint256",
          "name": "_index",
          "type": "uint256"
        }
      ],
      "name": "getSubContract",
      "outputs": [
        {
          "internalType": "contract EKAPB_SUB",
          "name": "",
          "type": "address"
        }
      ],
      "stateMutability": "view",
      "type": "function"
    },
    {
      "inputs": [
        {
          "internalType": "address",
          "name": "_address",
          "type": "address"
        }
      ],
      "name": "setAuthorized",
      "outputs": [],
      "stateMutability": "nonpayable",
      "type": "function"
    }
  ],
  "bytecode": "0x608060405234801561001057600080fd5b50336000806101000a81548173ffffffffffffffffffffffffffffffffffffffff021916908373ffffffffffffffffffffffffffffffffffffffff1602179055506119a4806100606000396000f3fe60806040523480156200001157600080fd5b5060043610620000525760003560e01c806314fc28121462000057578063c731fc7b1462000077578063f147a03a14620000ad578063f411149614620000cd575b600080fd5b6200007560048036038101906200006f91906200053d565b62000103565b005b6200009560048036038101906200008f91906200053d565b620001ef565b604051620000a4919062000755565b60405180910390f35b620000cb6004803603810190620000c5919062000569565b62000245565b005b620000eb6004803603810190620000e591906200060a565b6200037e565b604051620000fa919062000772565b60405180910390f35b60008054906101000a900473ffffffffffffffffffffffffffffffffffffffff1673ffffffffffffffffffffffffffffffffffffffff163373ffffffffffffffffffffffffffffffffffffffff161462000194576040517f08c379a00000000000000000000000000000000000000000000000000000000081526004016200018b90620007e1565b60405180910390fd5b6001600260008373ffffffffffffffffffffffffffffffffffffffff1673ffffffffffffffffffffffffffffffffffffffff16815260200190815260200160002060006101000a81548160ff02191690831515021790555050565b6000600260008373ffffffffffffffffffffffffffffffffffffffff1673ffffffffffffffffffffffffffffffffffffffff16815260200190815260200160002060009054906101000a900460ff169050919050565b600260003373ffffffffffffffffffffffffffffffffffffffff1673ffffffffffffffffffffffffffffffffffffffff16815260200190815260200160002060009054906101000a900460ff16620002d4576040517f08c379a0000000000000000000000000000000000000000000000000000000008152600401620002cb90620007e1565b60405180910390fd5b6000838383604051620002e790620003ed565b620002f5939291906200078f565b604051809103906000f08015801562000312573d6000803e3d6000fd5b5090506001819080600181540180825580915050600190039060005260206000200160009091909190916101000a81548173ffffffffffffffffffffffffffffffffffffffff021916908373ffffffffffffffffffffffffffffffffffffffff16021790555050505050565b600060018281548110620003bb577f4e487b7100000000000000000000000000000000000000000000000000000000600052603260045260246000fd5b9060005260206000200160009054906101000a900473ffffffffffffffffffffffffffffffffffffffff169050919050565b610efe8062000a7183390190565b6000620004126200040c846200082c565b62000803565b905080838252602082019050828560208602820111156200043257600080fd5b60005b858110156200046657816200044b888262000526565b84526020840193506020830192505060018101905062000435565b5050509392505050565b60006200048762000481846200085b565b62000803565b905082815260208101848484011115620004a057600080fd5b620004ad84828562000958565b509392505050565b600081359050620004c68162000a3c565b92915050565b600082601f830112620004de57600080fd5b8135620004f0848260208601620003fb565b91505092915050565b600082601f8301126200050b57600080fd5b81356200051d84826020860162000470565b91505092915050565b600081359050620005378162000a56565b92915050565b6000602082840312156200055057600080fd5b60006200056084828501620004b5565b91505092915050565b6000806000606084860312156200057f57600080fd5b600084013567ffffffffffffffff8111156200059a57600080fd5b620005a886828701620004f9565b935050602084013567ffffffffffffffff811115620005c657600080fd5b620005d486828701620004f9565b925050604084013567ffffffffffffffff811115620005f257600080fd5b6200060086828701620004cc565b9150509250925092565b6000602082840312156200061d57600080fd5b60006200062d8482850162000526565b91505092915050565b600062000644838362000744565b60208301905092915050565b60006200065d82620008a1565b620006698185620008c4565b9350620006768362000891565b8060005b83811015620006ad57815162000691888262000636565b97506200069e83620008b7565b9250506001810190506200067a565b5085935050505092915050565b620006c581620008fa565b82525050565b620006d68162000930565b82525050565b6000620006e982620008ac565b620006f58185620008d5565b93506200070781856020860162000967565b620007128162000a02565b840191505092915050565b60006200072c601c83620008d5565b9150620007398262000a13565b602082019050919050565b6200074f8162000926565b82525050565b60006020820190506200076c6000830184620006ba565b92915050565b6000602082019050620007896000830184620006cb565b92915050565b60006060820190508181036000830152620007ab8186620006dc565b90508181036020830152620007c18185620006dc565b90508181036040830152620007d7818462000650565b9050949350505050565b60006020820190508181036000830152620007fc816200071d565b9050919050565b60006200080f62000822565b90506200081d82826200099d565b919050565b6000604051905090565b600067ffffffffffffffff8211156200084a5762000849620009d3565b5b602082029050602081019050919050565b600067ffffffffffffffff821115620008795762000878620009d3565b5b620008848262000a02565b9050602081019050919050565b6000819050602082019050919050565b600081519050919050565b600081519050919050565b6000602082019050919050565b600082825260208201905092915050565b600082825260208201905092915050565b6000620008f38262000906565b9050919050565b60008115159050919050565b600073ffffffffffffffffffffffffffffffffffffffff82169050919050565b6000819050919050565b60006200093d8262000944565b9050919050565b6000620009518262000906565b9050919050565b82818337600083830152505050565b60005b83811015620009875780820151818401526020810190506200096a565b8381111562000997576000848401525b50505050565b620009a88262000a02565b810181811067ffffffffffffffff82111715620009ca57620009c9620009d3565b5b80604052505050565b7f4e487b7100000000000000000000000000000000000000000000000000000000600052604160045260246000fd5b6000601f19601f8301169050919050565b7f4275207965746b69796520736168697020646567696c73696e697a2e00000000600082015250565b62000a4781620008e6565b811462000a5357600080fd5b50565b62000a618162000926565b811462000a6d57600080fd5b5056fe60806040523480156200001157600080fd5b5060405162000efe38038062000efe833981810160405281019062000037919062000347565b82600190805190602001906200004f9291906200016c565b508160029080519060200190620000689291906200016c565b5060005b815181101562000122576004828281518110620000b2577f4e487b7100000000000000000000000000000000000000000000000000000000600052603260045260246000fd5b6020026020010151908060018154018082558091505060019003906000526020600020016000909190919091505560016008600083815260200190815260200160002060006101000a81548160ff0219169083151502179055508080620001199062000522565b9150506200006c565b50336000806101000a81548173ffffffffffffffffffffffffffffffffffffffff021916908373ffffffffffffffffffffffffffffffffffffffff16021790555050505062000628565b8280546200017a90620004b6565b90600052602060002090601f0160209004810192826200019e5760008555620001ea565b82601f10620001b957805160ff1916838001178555620001ea565b82800160010185558215620001ea579182015b82811115620001e9578251825591602001919060010190620001cc565b5b509050620001f99190620001fd565b5090565b5b8082111562000218576000816000905550600101620001fe565b5090565b6000620002336200022d8462000411565b620003e8565b905080838252602082019050828560208602820111156200025357600080fd5b60005b858110156200028757816200026c888262000330565b84526020840193506020830192505060018101905062000256565b5050509392505050565b6000620002a8620002a28462000440565b620003e8565b905082815260208101848484011115620002c157600080fd5b620002ce84828562000480565b509392505050565b600082601f830112620002e857600080fd5b8151620002fa8482602086016200021c565b91505092915050565b600082601f8301126200031557600080fd5b81516200032784826020860162000291565b91505092915050565b60008151905062000341816200060e565b92915050565b6000806000606084860312156200035d57600080fd5b600084015167ffffffffffffffff8111156200037857600080fd5b620003868682870162000303565b935050602084015167ffffffffffffffff811115620003a457600080fd5b620003b28682870162000303565b925050604084015167ffffffffffffffff811115620003d057600080fd5b620003de86828701620002d6565b9150509250925092565b6000620003f462000407565b9050620004028282620004ec565b919050565b6000604051905090565b600067ffffffffffffffff8211156200042f576200042e620005ce565b5b602082029050602081019050919050565b600067ffffffffffffffff8211156200045e576200045d620005ce565b5b6200046982620005fd565b9050602081019050919050565b6000819050919050565b60005b83811015620004a057808201518184015260208101905062000483565b83811115620004b0576000848401525b50505050565b60006002820490506001821680620004cf57607f821691505b60208210811415620004e657620004e56200059f565b5b50919050565b620004f782620005fd565b810181811067ffffffffffffffff82111715620005195762000518620005ce565b5b80604052505050565b60006200052f8262000476565b91507fffffffffffffffffffffffffffffffffffffffffffffffffffffffffffffffff82141562000565576200056462000570565b5b600182019050919050565b7f4e487b7100000000000000000000000000000000000000000000000000000000600052601160045260246000fd5b7f4e487b7100000000000000000000000000000000000000000000000000000000600052602260045260246000fd5b7f4e487b7100000000000000000000000000000000000000000000000000000000600052604160045260246000fd5b6000601f19601f8301169050919050565b620006198162000476565b81146200062557600080fd5b50565b6108c680620006386000396000f3fe608060405234801561001057600080fd5b506004361061009e5760003560e01c806395c0d84b1161006657806395c0d84b1461015d57806397af58741461018d578063c049144c146101bd578063c87da02d146101ed578063d2fdb01d1461020b5761009e565b80631af27a58146100a35780632c66e6b2146100c15780637ac717b5146100f1578063865109f21461010f578063904510601461013f575b600080fd5b6100ab610229565b6040516100b891906106f7565b60405180910390f35b6100db60048036038101906100d691906105bf565b6102bb565b6040516100e89190610734565b60405180910390f35b6100f9610309565b6040516101069190610734565b60405180910390f35b610129600480360381019061012491906105bf565b610316565b60405161013691906106c1565b60405180910390f35b610147610384565b60405161015491906106f7565b60405180910390f35b61017760048036038101906101729190610596565b610416565b6040516101849190610719565b60405180910390f35b6101a760048036038101906101a291906105bf565b610497565b6040516101b491906106dc565b60405180910390f35b6101d760048036038101906101d29190610596565b6104c1565b6040516101e491906106dc565b60405180910390f35b6101f5610517565b6040516102029190610734565b60405180910390f35b610213610524565b60405161022091906106dc565b60405180910390f35b606060018054610238906107f0565b80601f0160208091040260200160405190810160405280929190818152602001828054610264906107f0565b80156102b15780601f10610286576101008083540402835291602001916102b1565b820191906000526020600020905b81548152906001019060200180831161029457829003601f168201915b5050505050905090565b6000600482815481106102f7577f4e487b7100000000000000000000000000000000000000000000000000000000600052603260045260246000fd5b90600052602060002001549050919050565b6000600480549050905090565b600060058281548110610352577f4e487b7100000000000000000000000000000000000000000000000000000000600052603260045260246000fd5b9060005260206000200160009054906101000a900473ffffffffffffffffffffffffffffffffffffffff169050919050565b606060028054610393906107f0565b80601f01602080910402602001604051908101604052809291908181526020018280546103bf906107f0565b801561040c5780601f106103e15761010080835404028352916020019161040c565b820191906000526020600020905b8154815290600101906020018083116103ef57829003601f168201915b5050505050905090565b61041e61053b565b600760008373ffffffffffffffffffffffffffffffffffffffff1673ffffffffffffffffffffffffffffffffffffffff1681526020019081526020016000206040518060800160405290816000820154815260200160018201548152602001600282015481526020016003820154815250509050919050565b60006008600083815260200190815260200160002060009054906101000a900460ff169050919050565b6000600660008373ffffffffffffffffffffffffffffffffffffffff1673ffffffffffffffffffffffffffffffffffffffff16815260200190815260200160002060009054906101000a900460ff169050919050565b6000600580549050905090565b6000600360029054906101000a900460ff16905090565b6040518060800160405280600080191681526020016000801916815260200160008019168152602001600081525090565b60008135905061057b81610862565b92915050565b60008135905061059081610879565b92915050565b6000602082840312156105a857600080fd5b60006105b68482850161056c565b91505092915050565b6000602082840312156105d157600080fd5b60006105df84828501610581565b91505092915050565b6105f18161076b565b82525050565b6106008161077d565b82525050565b61060f81610789565b82525050565b60006106208261074f565b61062a818561075a565b935061063a8185602086016107bd565b61064381610851565b840191505092915050565b6080820160008201516106646000850182610606565b5060208201516106776020850182610606565b50604082015161068a6040850182610606565b50606082015161069d60608501826106a3565b50505050565b6106ac816107b3565b82525050565b6106bb816107b3565b82525050565b60006020820190506106d660008301846105e8565b92915050565b60006020820190506106f160008301846105f7565b92915050565b600060208201905081810360008301526107118184610615565b905092915050565b600060808201905061072e600083018461064e565b92915050565b600060208201905061074960008301846106b2565b92915050565b600081519050919050565b600082825260208201905092915050565b600061077682610793565b9050919050565b60008115159050919050565b6000819050919050565b600073ffffffffffffffffffffffffffffffffffffffff82169050919050565b6000819050919050565b60005b838110156107db5780820151818401526020810190506107c0565b838111156107ea576000848401525b50505050565b6000600282049050600182168061080857607f821691505b6020821081141561081c5761081b610822565b5b50919050565b7f4e487b7100000000000000000000000000000000000000000000000000000000600052602260045260246000fd5b6000601f19601f8301169050919050565b61086b8161076b565b811461087657600080fd5b50565b610882816107b3565b811461088d57600080fd5b5056fea26469706673582212204c91542d4f6005394824481834793eed831f8bffb9183626114aea46de99308d64736f6c63430008040033a26469706673582212203b6586558316b004a88172712f7a05adc3cb72a2bf91776eaa0e7596f08b646964736f6c63430008040033",
  "linkReferences": {},
  "deployedLinkReferences": {}
}